:1000000019C028C027C026C025C024C023C022C0D4
:1000100021C020C01FC01EC01DC01CC01BC01AC0F4
:1000200019C018C043C016C015C014C013C012C0F8
:1000300011C010C011241FBECFEFD2E0DEBFCDBF74
:1000400011E0A0E0B1E001C01D92A632B107E1F7D6
:1000500077D1D0C1D5CF87E084B986E085B913B810
:1000600080EF8AB91BB819B88FE387B988B916B879
:1000700008951092C50083E08093C40088E98093BE
:10008000C10086E08093C2000895582F282F392F91
:10009000F90107C08091C00085FFFCCF819180935A
:1000A000C6008E2F851B8617A8F308951F920F9206
:1000B0000FB60F9211242F938F939F93EF93FF937B
:1000C0002091C60020930101203A39F48091040167
:1000D000882319F481E08093020180910201882332
:1000E00079F180912501E82FF0E0EB5FFE4F20834E
:1000F0008F5F8093250190912501809103019817CE
:1001000089F480912501803120F081E08093040101
:1001100002C0109225011092030180910301809387
:1001200002010EC080912501823051F4243120F467
:100130002E5F2093030104C010922501109202014A
:10014000FF91EF919F918F912F910F900FBE0F9084
:100150001F9018958130A1F0813030F08230E9F0A5
:10016000833009F034C026C0409885EF8A95F1F7B6
:10017000409A83E397E00197F1F78BB190E20BC0CF
:10018000429885EF8A95F1F7429A83E397E00197C9
:10019000F1F78BB190E489270BC0449885EF8A95DD
:1001A000F1F7449A83E397E00197F1F78BB1805818
:1001B0008BB90895299885EF8A95F1F7299A83E3F9
:1001C00097E00197F1F785B191E0892785B9089506
:1001D0008130A1F0813030F08230E9F0833009F0D5
:1001E00034C026C0419885EF8A95F1F7419A83E3A0
:1001F00097E00197F1F78BB190E20BC0439885EF40
:100200008A95F1F7439A83E397E00197F1F78BB171
:1002100090E489270BC0459885EF8A95F1F7459AB8
:1002200083E397E00197F1F78BB180588BB908957C
:100230002A9885EF8A95F1F72A9A83E397E0019748
:10024000F1F785B191E0892785B90895CF92DF92C2
:10025000EF92FF920F931F93CF93DF937C01C62EF3
:10026000FC01918180819827892F82958F70892741
:10027000282F269526952827322F3695928183811F
:100280009827892F82958F708927D82ED694D69457
:10029000D826322730FF03C0862F5CDF02C0862FAE
:1002A00097DFC0E0D0E0F701EC0FFD1F008110E008
:1002B00007FF03C08C2D4EDF02C08C2D89DF1F5F2E
:1002C000183011F0000FF4CF2196C430D10559F742
:1002D0008D2D86958D2580FD03C08C2D3BDF02C0C2
:1002E0008C2D76DFDF91CF911F910F91FF90EF90D2
:1002F000DF90CF900895FC0120E090E003C0819151
:10030000980F2F5F2617D8F3892F8195089520E045
:1003100060E230E148EB50E08BB186278BB98BB1BE
:1003200083278BB98CED95E0FA013197F1F70197AE
:10033000D9F72F5F283081F78BB180728BB9089580
:10034000FF920F931F93DF93CF9300D000D0CDB7D0
:10035000DEB719821A821B821C82F8947CDED7DFFA
:100360001092C50083E08093C40088E98093C100A7
:1003700086E08093C20078948E010F5F1F4F80E16A
:10038000F82E80910401882389F180912501843120
:1003900038F1309125013150E5E0F1E020E090E0C6
:1003A00003C08191280F9F5F9317D8F3E091250137
:1003B000F0E0EC5FFE4F21958081821789F48091F7
:1003C000140190911501A0911601B0911701898334
:1003D0009A83AB83BC83609109016370C80136DFE7
:1003E0001092040180910401809325018BB18F2527
:0803F0008BB9C7CFF894FFCFD1
:040000050080010274
:00000001FF
