:1000000019C033C032C031C030C02FC02EC02DC087
:100010002CC05BC02AC029C028C027C026C025C06C
:1000200024C023C06CC021C020C01FC01EC01DC082
:100030001CC01BC011241FBECFEFD2E0DEBFCDBF5E
:1000400011E0A0E0B1E0ECEBF3E002C005900D920E
:10005000A437B107D9F711E0A4E7B1E001C01D92C0
:10006000A439B107E1F7B2D0A7C1CACF87E384B9F9
:1000700015B813B88FE387B98FE088B916B884E054
:100080008AB91BB819B808951092C5008BE0809307
:10009000C40088E98093C10086E08093C20008957F
:1000A000482F81E38A95F1F7242F392FC901FC01EC
:1000B00007C08091C00085FFFCCF81918093C6006E
:1000C0008E2F841B8617A8F308951F920F920FB6E8
:1000D0000F9211248F93EF93FF9381E0809374012B
:1000E0001092B100E0E7F0E080818E7F8083FF9185
:1000F000EF918F910F900FBE0F901F9018951F9248
:100100000F920FB60F9211248F939F93EF93FF934B
:1001100085E08093B10080917000816080937000D1
:100120001092B2009091C60080917501E82FF0E026
:10013000EA58FE4F90838F5F80937501809175011F
:10014000803110F010927501FF91EF919F918F9186
:100150000F900FBE0F901F90189520E030E0429A4C
:1001600087FF02C0409A01C0409842982F5F3F4FDE
:100170002931310529F0660F771F881F991FEFCFAE
:10018000419A82E08A95F1F7419840980895449801
:1001900085B1887F85B9EBE8F1E020E042E031E00D
:1001A00085B1822B85B9842F8A95F1F74B9B02C0CC
:1001B000308301C0108295B1822F8095892385B943
:1001C0002F5F3196283061F7449A0895BF92CF92FD
:1001D000DF92EF92FF920F931F93CF93DF93F894E8
:1001E00045DF43988CE08A95F1F7439A60E070E030
:1001F00080E090E0B2DF1092C5008BE08093C400F5
:1002000088E98093C10086E08093C200789420E062
:1002100048EB50E02D9A80ED97E0FA013197F1F725
:100220000197D9F72D988CED95E0FA013197F1F708
:100230000197D9F72F5F233069F719B112951F7015
:100240001F3071F510E0C8EBD0E000E2E12FF0E0E4
:10025000EE0FFF1FEE0FFF1FE45FFE4F6081718105
:10026000828193817ADF2D9A80ED97E0FE013197AC
:10027000F1F70197D9F72D9860E070E080E090E009
:100280006CDF88EE93E0FE013197F1F70197D9F723
:1002900088B1802788B91F5F1830C0F210E0D6CF30
:1002A000E0E2BE2E78EBC72ED12C68E0E62E61E0AE
:1002B000F62E03E088B18B2588B9809174018823DC
:1002C00009F478C080917701811709F06DC08091A1
:1002D00076018A3F09F068C080917A018F3F09F06A
:1002E00063C080917801813021F0823009F05CC0D8
:1002F00037C080917901C82FD0E0C830D10508F00F
:1003000053C0FE01EE0FFF1FEE0FFF1FE45FFE4F15
:10031000608171818281938120DF2D9A80ED97E049
:10032000F6013197F1F70197D9F72D9860E070E069
:1003300080E090E012DF2BDF809177018093010154
:10034000809178018093020180917901809303016B
:10035000C557DE4F88818093040180E091E022C080
:1003600010930701F701802F11928A95E9F76091A8
:100370000A0140E050E0FA01E557FE4F808190E02D
:100380009A012770307002C0880F991F2A95E2F7F2
:10039000682B4F5F5F4F4830510569F760930A0142
:1003A00086E091E066E07CDE109275018091750137
:0C03B00080937401ECDE7ECFF894FFCF48
:1003BC00FB00000000FFFC00000000FF80000000BC
:1003CC0040000000200000001000000008000000A9
:1003DC00040000000200000001000000008000008A
:1003EC000040000000200000001000000008000089
:1003FC0000040000000200000001000000004000AA
:10040C00000080000000200000001000000002002E
:10041C0000000400000008000000010000000000C3
:04042C0000000000CC
:00000001FF
