:100000000C942A000C9447000C9447000C94470071
:100010000C9476000C9447000C9447000C94470015
:100020000C9447000C9447000C9447000C948900F2
:100030000C9447000C9447000C9447000C94470024
:100040000C9447000C9447000C9447000C94470014
:100050000C94470011241FBECFE5D4E0DEBFCDBF16
:1000600010E0A0E6B0E0E4E2F5E002C005900D92F9
:10007000A43DB107D9F711E0A4EDB0E001C01D9295
:10008000AF30B107E1F70E9418010C9490020C9474
:1000900000008FE08ABB1BBA19BA84E187BB18BA8B
:1000A00016BA8FE384BB8FE185BB13BA84E081BBB2
:1000B00088EF82BB10BA089510BC8BE089B988E93B
:1000C0008AB986E880BD0895482F81E38A95F1F7C3
:1000D000242F392FC901FC0104C05D9BFECF819103
:1000E0008CB98E2F841B8617C0F308951F920F9230
:1000F0000FB60F9211248F9381E08093D40015BC2A
:1001000089B7807889BF8F910F900FBE0F901F9095
:1001100018951F920F920FB60F9211248F939F93F1
:10012000EF93FF9385E085BD89B7806489BF14BCD8
:100130009CB18091D500E82FF0E0EA52FF4F908308
:100140008F5F8093D5008091D500803110F01092A0
:10015000D500FF91EF919F918F910F900FBE0F905F
:100160001F90189520E030E0D99A87FF02C0DB9AF3
:1001700001C0DB98D9982F5F3F4F2931310529F015
:10018000660F771F881F991FEFCFDA9A82E08A9552
:10019000F1F7DA98DB98089540E050E0A1E0B0E094
:1001A00060E074E295B39D01042E02C0220F331F5C
:1001B0000A94E2F7822F8095892385BBCB010197B2
:1001C000F1F780B3FB013197F1F7FA01EB5FFE4FD6
:1001D000869586958695808385B3282B25BB4F5FB2
:1001E0005F4F45305105F1F6E5E0F1E040E050E0C9
:1001F00015C0CB01022E02C0959587950A94E2F7AF
:1002000081708D932F5F3F4F2530310591F73196E7
:100210004B5F5F4F81E0EA30F80749F08081682F3B
:1002200070E0DA01A551BF4F20E030E0E2CF089541
:100230009F92AF92BF92CF92DF92EF92FF920F9375
:100240001F93CF93DF93F8940E944900D8988CE0D5
:100250008A95F1F7D89A60E070E080E090E00E9423
:10026000B20010BC8BE089B988E98AB986E880BD04
:100270007894AD9A8CED95E028EB30E0F901319758
:10028000F1F70197D9F785B3807C85BB8CED95E0BC
:1002900028EB30E0F9013197F1F70197D9F7AD9AE2
:1002A0008CED95E028EB30E0F9013197F1F70197FB
:1002B000D9F785B3807C85BB8CED95E028EB30E0E9
:1002C000F9013197F1F70197D9F7AD9A8CED95E0E7
:1002D00028EB30E0F9013197F1F70197D9F785B3B1
:1002E000807C85BB8CED95E028EB30E0F9013197FF
:1002F000F1F70197D9F769B329B389B349B330E06E
:100300002074307005E0359527950A95E1F790E067
:100310008072907013E0959587951A95E1F7122FEA
:10032000180F661F6627661F160F50E04071507049
:1003300055954795140F88B390E1892788BB1F30E6
:1003400009F051C010E0C8EBD0E000E12AC0E12F75
:10035000F0E0EE0FFF1FEE0FFF1FE459FF4F60812B
:100360007181828193810E94B200AD9A88E998E000
:10037000FE013197F1F70197D9F785B3807C85BBF2
:1003800060E070E080E090E00E94B20080ED97E0D5
:10039000FE013197F1F70197D9F788B3802788BB21
:1003A0001F5F1031A0F280E797E1FE013197F1F76E
:1003B0000197D9F788B3802788BB80E797E1FE01D2
:1003C0003197F1F70197D9F788B3802788BB80E789
:1003D00097E1FE013197F1F70197D9F788B38027AC
:1003E00088BB10E0B4CFF0E19F2EE8EBAE2EB12C2D
:1003F00078E6C72E70E0D72E03E064E0E62EF12CFD
:1004000088B3892588BB8091D400882309F485C0EE
:100410008091D700811709F07AC08091D6008A3F79
:1004200009F075C08091DA008F3F09F070C08091AB
:10043000D800813021F0823009F069C03CC0809141
:10044000D900C82FD0E0C831D10508F060C0FE0146
:10045000EE0FFF1FEE0FFF1FE459FF4F6081718108
:10046000828193810E94B200AD9A88E998E0F501FB
:100470003197F1F70197D9F785B3807C85BB60E0B0
:1004800070E080E090E00E94B2000E94CC00809179
:10049000D700809361008091D800809362008091A2
:1004A000D90080936300C551DF4F88818093640039
:1004B00080E690E029C010936700F601802F11922A
:1004C0008A95E9F740E050E0842F869586958695D9
:1004D000D701A81BB109AA59BF4FFA01E551FF4F37
:1004E000808190E09A012770307002C0880F991FB8
:1004F0002A95E2F72C91282B2C934F5F5F4F4831C0
:10050000510511F786E690E066E00E9464001092C3
:10051000D5008091D5008093D4000E94CC0070CF8C
:04052000F894FFCF7D
:10052400FB00000000FFFC00000000FF01000000D1
:1005340080000000400000002000000010000000C7
:100544000800000004000000020000000080000019
:10055400004000000020000000100000000800001F
:100564000004000000020000000100000000400040
:1005740000008000000020000000100000000200C5
:10058400000004000000080000000100000000005A
:040594000000000063
:00000001FF
