:1000000022C03CC03BC03AC039C038C037C036C03F
:1000100035C051C433C032C031C023C42FC02EC03C
:10002000DCC32CC0AAC32AC029C028C027C026C050
:1000300025C024C052C355C358C35BC35EC361C34C
:1000400064C367C36AC311241FBECFEFD2E0DEBF13
:10005000CDBF11E0A0E0B1E0ECE3FFE002C005900D
:100060000D92A235B107D9F711E0A2E5B1E001C0C8
:100070001D92AC36B107E1F77FD45EC7C1CF282F00
:10008000229A90E027FF02C02A9A03C085B1887F98
:1000900085B90000409A000040989F5F983011F0A9
:1000A000220FF0CF089584B1887F84B990E080E07A
:1000B0001A9B03C0880F816001C0880F0000409A1E
:1000C000000040989F5F983099F708959C01229A0C
:1000D00090E037FF02C02A9A03C085B1887F85B9B6
:1000E000409A000040989F5F903119F0220F331F13
:1000F000F0CF089584B1887F84B920E030E040E0FB
:10010000C901880F991F1A9B03C09C01216001C07F
:100110009C01409A000040984F5F403189F7C90127
:1001200008950F931F938B014198A9DFC801CEDF7B
:10013000419A1F910F91089541988068A0DF0000B7
:10014000D9DF419A08950F931F938B01782F7295F1
:10015000707F60E0616187E0E4DF88E0B801E1DFA3
:100160001F910F9108950F931F938B01682F70E0DB
:100170007695762F662777956795616187E0D1DF61
:1001800089E0B801CEDF1F910F910895782F729505
:10019000707F60E0616187E0C4DF88E0CDDF0895B3
:1001A0001F93CF93DF9382E060E178EFCCDFCFEF56
:1001B000DFEF1FEF8FE061E070E0C5DF8FE0E6DF8B
:1001C00080FF05C021978FEFCF3FD807B9F78FE0A9
:1001D000DDDF9370969587958B5B90400B9730F0A1
:1001E000112311F484E003C01150E4CF85E0DF91C6
:1001F000CF911F910895419842DF419A0895EF925F
:10020000FF920F931F937B018C01419880E237DFAF
:10021000812F9927AA27BB2732DFC801AA27BB272E
:100220002EDFBB27A12F902F8F2D29DF8E2D27DFCB
:10023000419A80E01F910F91FF90EF9008956F9287
:100240007F928F929F92AF92BF92CF92DF92EF9266
:10025000FF920F931F93CF93DF933B014C01419A81
:1002600040982A9A80E7C7DF80E098E40197F1F789
:10027000C0E0D1E000E069917991802F52DF0F5FFB
:100280000830C9F7C4E1D1E00AE069917991802F83
:1002900048DF0F5F0031C9F7C0E2D1E000E06991AB
:1002A0007991802F50DF0F5F0031C9F7C0E4D1E0B2
:1002B00000E069917991802F56DF0F5F0530C9F713
:1002C00080E098E40197F1F768EA79E381E79AE042
:1002D00096DF83E397E00197F1F7C401B3012DECBA
:1002E0003CEC4CE451E478D45B016C01DDD4E62EA7
:1002F00084E181DF83E060E070E013DF86E060E0AE
:1003000070E00FDFC401B30120E030E047E554E4C2
:100310005FD488231CF460E27AE002C060E27AE1F4
:1003200084E0FFDEFF24B7017A6081E0FADE002777
:10033000F7FC0095102FC801B701E4D49B01AC0174
:10034000C601B501E0D320E030E040E857E48AD5AB
:10035000ABD49B01AC0182E0B901E3DE82E060E056
:1003600070E001DF80E09CE60197F1F78FE062EC3E
:1003700078E2D7DE8FE0E0DE82709870892BD1F7CB
:100380008EE0DADE8C018AE001DFF4E09695879555
:10039000FA95E1F7E4E016950795EA95E1F7802BE9
:1003A00080FD32C08CE060E07CE4BBDE82E060E097
:1003B00078EFC9DE80E066E077EFC5DE8FE060ECC5
:1003C00070E3AFDE8FE0B8DE94FDFCCF8CE060E040
:1003D00074E4A7DE82E060E078EFB5DE80E066E0FE
:1003E00077EFB1DE8FE064EC70E29BDE02E08FE03D
:1003F000A3DE902F9A95F1F782FDF9CF8EE09CDE77
:1004000090FD02C080E001C084E0DF91CF911F9198
:100410000F91FF90EF90DF90CF90BF90AF909F90A3
:100420008F907F906F900895EF92FF920F931F939C
:100430007C01419880EA23DE36DEF70181938F014B
:1004400032DEF70181832FDEF80181832CDE0F5F1E
:100450001F4FF8018183419A80E01F910F91FF9017
:10046000EF90089587E061E070E05BDE89E064DE94
:1004700008951F93182F84E1BEDE87E060E170E0ED
:1004800050DE1233C9F0133328F4123041F01A3021
:10049000F9F409C01436A1F01639D1F41FC080E078
:1004A00063E270E303C080E063E278E03ADE8AE072
:1004B00060ED78E136DE12C080E063E270E0F6CFF6
:1004C00080E061E270E02DDE8AE064ED78E1F2CF59
:1004D00087E061E170E025DE81E009C087E061E14D
:1004E00070E01FDE80E098E40197F1F780E01F9153
:1004F0000895FF920F931F93CF93DF93182F092F27
:10050000F62E80E678DE419880E4B9DD212F302F89
:10051000C901EC0110E003C08991B1DD1F5F1F1517
:10052000D8F3419ADF91CF911F910F91FF900895D9
:100530000F931F93CF93DF93EC0180EE5CDE8CE092
:100540008A95F1F7419880EC9ADDADDD8C3F11F092
:1005500000E00FC08883A7DD082F898381508F308A
:1005600040F412E003C09FDD89831F5F21961017BE
:10057000D0F3419A802FDF91CF911F910F91089571
:100580000F931F93082F84E136DE10E001501040D6
:100590008DE0B801D8DD8AE064E070E0D4DD80E071
:1005A0001F910F9108951F93182F883088F484E1CC
:1005B00022DE612F70E0660F771F61627A6084E04F
:1005C000C2DD88E18A95F1F781E0E0DD90E087FF08
:1005D00091E0892F1F910895CF93DF9388E10BDE7F
:1005E0008CE060E074E49DDD8FE0A6DDBC0161601D
:1005F0008FE097DDCFEFDFEF8FE09EDD21979FEF5C
:10060000CF3FD90711F080FDF7CFCD2B19F4C0E013
:10061000D0E004C08BE090DDEC01D17084E1EBDD33
:100620008C2FDF91CF910895BBDD843099F084E168
:10063000E2DD88E065E470E086DD81E06FE772E08E
:1006400082DD8DE060E07CE06CDD8FE060EC72E2EA
:1006500068DD80E0089584E1CEDD88E065E470E047
:1006600072DD81E066E07FEF6EDD9ADD843049F077
:1006700082E060E178EF67DD8FE060EC72E251DDEF
:1006800080E0089584E1B7DD81E38A95F1F788E0A1
:1006900067E470E058DD81E060E678E954DD80DDF4
:1006A000843049F082E060E378EF4DDD8FE060EC6C
:1006B00072E237DD80E008951F93182F84E19BDDFF
:1006C00081E38A95F1F7E12FF0E0E930F10518F4C4
:1006D000E65EFF4F099481E025C080E061E073E0B1
:1006E0001FC080E069E073E01BC080E06AE073E057
:1006F00017C080E061E673E013C080E06AE273E057
:100700000FC080E06CE173E00BC080E066E273E054
:1007100007C080E06EE373E003C080E06FE573E044
:1007200022DD80E01F91089584E084B915B813B8E4
:100730001AB81BB819B887E087B918B816B8089561
:100740001092C50083E08093C40088E98093C100C3
:1007500086E08093C2000895582F282F392FF90181
:1007600007C08091C00085FFFCCF81918093C600B7
:100770008E2F851B8617A8F308951F920F920FB630
:100780000F9211248F939F93EF93FF938091B10069
:1007900085608093B10080917000816080937000CB
:1007A0001092B2009091C60080916701E82FF0E0AE
:1007B000ED5AFE4F90838F5F8093670180916701B0
:1007C000803110F010926701FF91EF919F918F910E
:1007D0000F900FBE0F901F9018951F920F920FB69B
:1007E0000F9211248F939F938091690190915101F1
:1007F0008F5F8093690181509817A8F41092690166
:1008000080916A01882311F086E001C08FE0809317
:10081000510180916A0191E0892780936A0188B132
:1008200094E0892788B99F918F910F900FBE0F9008
:100830001F90189510928100EFE6F0E080818E7F86
:10084000808315BCEEE6F0E080818E7F808310927D
:1008500052018091520180936A01429810926B017B
:1008600008951F920F920FB60F9211242F933F936A
:100870004F935F936F937F938F939F93AF93BF93A8
:10088000EF93FF9380916B018F5F80936B01815099
:1008900009F0D0DFFF91EF91BF91AF919F918F91C0
:1008A0007F916F915F914F913F912F910F900FBE6C
:1008B0000F901F9018951F920F920FB60F92112450
:1008C0002F933F934F935F936F937F938F939F9358
:1008D000AF93BF93EF93FF931092B100809170009C
:1008E0008E7F8093700080916701873061F4AAE465
:1008F000B1E0E3E5F1E001900D928150E1F781E094
:100900008093680109C04091670123E531E0C90186
:1009100060E070E050E009D310926701FF91EF9121
:10092000BF91AF919F918F917F916F915F914F9107
:100930003F912F910F900FBE0F901F901895CF935E
:10094000DF93EC0188E157DC88E18A95F1F704C078
:1009500080915201882321F01899FACFCE01E8DD69
:10096000DF91CF910895C5DD8AE145DC88E18A9564
:10097000F1F71899FECF0895DF92EF92FF920F934F
:100980001F93DF93CF93CDB7DEB764970FB6F8947C
:10099000DEBF0FBECDBFFE01359680E1DF011D92A7
:1009A0008A95E9F719821A821B821C82F894BCDEB0
:1009B0001092C50083E08093C40088E98093C10051
:1009C00086E08093C20088B194E0892788B980EDE1
:1009D00097E028EB30E0F9013197F1F70197D9F76B
:1009E00088B194E0892788B908EB10E061E270E0F3
:1009F0008BEE93E424DC28EE33E0F8013197F1F735
:100A000021503040D1F7882389F788E055DE87E010
:100A1000B7DDCE01019608DD789400E085E0E82E90
:100A2000F12CEC0EFD1EDD24D3948091520188231D
:100A300029F52CC088E1DFDB4A9904C080916A0166
:100A40008823D1F780916A018823B1F0C70177DF4D
:100A5000182F882389F0873079F48D818C3F61F4D9
:100A60008B858F3F49F4C70167E076DEF70111926D
:100A70001A95E9F70111DEDE84E1BDDB80916A01A0
:100A80008823C1F68AE491E067E06DDF8091680118
:100A9000882359F280914A018E3F91F5809150014F
:100AA0008F3F71F580914B01873051F580914C015A
:100AB0008F3F69F480914D018F3F49F480914E0141
:100AC0008F3F29F400E080914F018F3F09F001E052
:100AD0008091810085608093810080916F008160AA
:100AE00080936F00109285001092840085B5846019
:100AF00085BD80916E00816080936E00D09252011E
:100B00001092680192CF5058BB27AA270ED070C10F
:100B100061D130F066D120F031F49F3F11F41EF422
:100B200056C10EF4E095E7FB4CC1E92F72D180F37A
:100B3000BA17620773078407950718F071F49EF5DA
:100B40008AC10EF4E0950B2EBA2FA02D0B01B9012E
:100B500090010C01CA01A0011124FF27591B99F033
:100B6000593F50F4503E68F11A16F040A22F232F3F
:100B7000342F4427585FF3CF469537952795A7958F
:100B8000F0405395C9F77EF41F16BA0B620B730B36
:100B9000840BBAF09150A1F0FF0FBB1F661F771FA7
:100BA000881FC2F70EC0BA0F621F731F841F48F45C
:100BB000879577956795B795F7959E3F08F0B3CFE2
:100BC0009395880F08F09927EE0F979587950895CC
:100BD000D4D008F481E008950CD00AC102D140F0CD
:100BE000F9D030F021F45F3F19F0EBC0511134C15E
:100BF000EEC00FD198F39923C9F35523B1F3951B98
:100C0000550BBB27AA2762177307840738F09F5F2D
:100C10005F4F220F331F441FAA1FA9F333D00E2E9C
:100C20003AF0E0E830D091505040E695001CCAF709
:100C300029D0FE2F27D0660F771F881FBB1F2617CE
:100C400037074807AB07B0E809F0BB0B802DBF01A1
:100C5000FF2793585F4F2AF09E3F510568F0B1C0BF
:100C6000FBC05F3FECF3983EDCF386957795679584
:100C7000B795F7959F5FC9F7880F911D9695879552
:100C800097F90895E1E0660F771F881FBB1F621771
:100C900073078407BA0720F0621B730B840BBA0B2F
:100CA000EE1F88F7E0950895BCD088F09F5790F02C
:100CB000B92F9927B751A0F0D1F0660F771F881F81
:100CC000991F1AF0BA95C9F712C0B13081F0C3D09C
:100CD000B1E00895C0C0672F782F8827B85F39F03A
:100CE000B93FCCF3869577956795B395D9F73EF4E0
:100CF00090958095709561957F4F8F4F9F4F089588
:100D0000E89409C097FB3EF49095809570956195A5
:100D10007F4F8F4F9F4F9923A9F0F92F96E9BB275B
:100D20009395F695879577956795B795F111F8CFD7
:100D3000FAF4BB0F11F460FF1BC06F5F7F4F8F4F42
:100D40009F4F16C0882311F096E911C0772321F038
:100D50009EE8872F762F05C0662371F096E8862FD0
:100D600070E060E02AF09A95660F771F881FDAF727
:100D7000880F9695879597F90895990F0008550F54
:100D8000AA0BE0E8FEEF16161706E807F907C0F011
:100D900012161306E407F50798F0621B730B840B19
:100DA000950B39F40A2661F0232B242B252B21F4F3
:100DB00008950A2609F4A140A6958FEF811D811D93
:100DC000089597F99F6780E870E060E008959FEFCD
:100DD00080EC089500240A941616170618060906D2
:100DE000089500240A9412161306140605060895A1
:100DF000092E0394000C11F4882352F0BB0F40F429
:100E0000BF2B11F460FF04C06F5F7F4F8F4F9F4F68
:100E1000089557FD9058440F551F59F05F3F71F0EA
:100E20004795880F97FB991F61F09F3F79F0879551
:100E30000895121613061406551FF2CF4695F1DFDA
:100E400008C0161617061806991FF1CF869571056A
:100E5000610508940895E894BB2766277727CB019E
:100E600097F908950BD0C4CFB5DF28F0BADF18F09A
:100E7000952309F0A6CFABCF1124EECFCADFA0F3A4
:100E8000959FD1F3950F50E0551F629FF001729F1F
:100E9000BB27F00DB11D639FAA27F00DB11DAA1F3E
:100EA000649F6627B00DA11D661F829F2227B00D8B
:100EB000A11D621F739FB00DA11D621F839FA00D16
:100EC000611D221F749F3327A00D611D231F849F66
:100ED000600D211D822F762F6A2F11249F575040BD
:100EE0008AF0E1F088234AF0EE0FFF1FBB1F661F58
:100EF000771F881F91505040A9F79E3F510570F011
:100F000060CFAACF5F3FECF3983EDCF386957795F0
:100F10006795B795F795E7959F5FC1F7FE2B880F0B
:100F2000911D9695879597F90895DC0101C06D9301
:0C0F300041505040E0F70895F894FFCFC6
:100F3C002112240A05B80000200A24000000110028
:100F4C0000000000D418097000440008454CC02073
:100F5C0006F7000000F80711709901020F40C02A33
:100F6C00450081D20400250827010F005F15000001
:100F7C005F030084000000000000FE07FFFFFFFF7E
:020F8C00FF0F55
:00000001FF
