:100000000C94F20C0C940F0D0C940F0D0C940F0D1E
:100010000C940F0D0C940F0D0C940F0D0C940F0DF0
:100020000C940F0D0C940F0D0C940F0D0C940F0DE0
:100030000C940F0D0C940F0D0C940F0D0C940F0DD0
:100040000C940F0D0C940F0D0C940F0D0C940F0DC0
:100050000C940F0DFFFFFFFFFFFFFFFFFFFFFFFFF0
:10006000FFFFFFFFFFFFFFFFFFFFFFFFFFFFFFFFA0
:10007000FFFFFFFFFFFFFFFFFEFBEFBFFFFFFEFBEA
:10008000EFBFFFFFFEDB6DBE01FFFEDB6DBC00FFBF
:10009000FEDB6DB8FC7FFEFFEFF3873FFFFFFFE75E
:1000A000039FFC000006019FF800000C00CFF1FF49
:1000B000FFF800CFF3FF800000CFF3FF800000CFF8
:1000C000F1FFFFFC00CFF8000004008FFE000006E7
:1000D000019FFFFFFFE3031FFFFFFFF1FE3FFFFC58
:1000E0000FF8787FFFF803FC01FFFFF0C3FF87FFE5
:1000F000FFE3F1FFFFFFFFE7F1FFFFFFFFE7F9FF7E
:10010000FFFFFFE7F9FFFFFFFFE3F1FFFFFFFFF74F
:10011000F3FFFFFFFFFFFFFFFFFFFFF1FFFFFFFF09
:10012000FFE0FFFFFFFFFFECFFFFFFFFFFE4FFFF2C
:10013000FFFFFFF1FFFFFFFFFFFFFFFFFFFFFFFFDD
:10014000FFFFFFFFFFFFFFFFFFFFFFFFFFFFFFFFBF
:10015000FFFFFFFFFE007FFFFFFC003FFFFFF800F7
:100160001FFFFC0000003FF00000000FE000000057
:1001700007E000000007E1FFFFFF87E3FFFFFF87C5
:10018000E3FFFFFFC7E3800001C7E3800001C7E38F
:10019000800001C7E3800001C7E3800001C7E3805E
:1001A0000001C7E3800001C7E3800001C7E38000CE
:1001B00001C7E3800001C7E3800001C7E3800001BD
:1001C000C7E3DFFFFFC7E1FFFFFFC7E1FFFFFF87D7
:1001D000E3FFFFFFC7E3800001C7E3800001C7E33F
:1001E000800001C7E3800001C7E3800001C7E3800E
:1001F0000001C7E3800001C7E3800001C7E380007E
:1002000001C7E3800001C7E3800001C7E38000016C
:10021000C7E3C00003C7E1FFFFFFC7E1FFFFFFC760
:10022000E3FFFFFFC7E3C00003C7E3800001C7E3AC
:10023000800001C7E3800001C7E3800001C7E380BD
:100240000001C7E3800001C7E3800001C7E380002D
:1002500001C7E3800001C7E3800001C7E38000011C
:10026000C7E3C00003C7E3FFFFFFC7E3FFFFFF874C
:10027000E3FFFFFFC7E3C00003C7E3800001C7E35C
:10028000800001C7E3800001C7E3800001C7E3806D
:100290000001C7E3800001C7E3800001C7E38000DD
:1002A00001C7E3800001C7E3800001C7E3800001CC
:1002B000C7E3C00001C7E3FFFFFF87E3FFFFFFC7FE
:1002C000E1FFFFFF87E000000007F00000000FF8EB
:1002D0000000001FFFFFFFFFFFFFFFFFFFFFFFFF0B
:1002E000FFFFFFFFFFFFFFFFFFFFFFFFFFFFFFFF1E
:1002F000FFFFFFFFFFFFFFEFBEFBFFFFEFBEFBFFB8
:10030000FFEDB6DBE01FEDB6DBC00FEDB6DB8FC750
:10031000EFB6FF3873FFFFFE7039C0000060198030
:100320000000C00C1FFFFF800C3FF800000C3FF8DE
:1003300000000C1FFFFFC00C8000004008E0000020
:100340006019FFFFFE3031FFFFFF1FE3FFC0FF8793
:1003500087FF803FC01FFF0C3FF87FFE3F1FFFFF5E
:10036000FE7F1FFFFFFE7F9FFFFFFE7F9FFFFFFEC1
:100370003F1FFFFFFF7F3FFFFFFFFFFFFFFFFF1F4D
:10038000FFFFFFFE0FFFFFFFFECFFFFFFFFE4FFF50
:10039000FFFFFF1FFFFFFFFFFFFFFFFFFFFFFFFF4D
:1003A000FFFFFFFFFFFFFFFFFFFFFFFFFFFFFFFF5D
:1003B000FFFFFFFFFFFFFFFFFFFFFFFFFFFFFFFF4D
:1003C000FFFFFFFFFFFFFFFFFFFFFFFFFFFFFFFF3D
:1003D000FFFFFFFFFFFFFFFFFFFFFFFFFFFFFFFF2D
:1003E000FFFFFFFFF0000FFFFFFFFFFFFC0000001B
:1003F0007FFFFFFFFFE000000007FFFFFFFF00009F
:10040000000001FFFFFFFC00000000003FFFFFF0C5
:1004100000000000001FFFFFC0000000000007FFF9
:10042000FF80000000000003FFFF0000000000004C
:1004300001FFFE00000000000000FFFC00000000C3
:100440000000007FFC000000000000003FF80000FA
:1004500000000000003FF0000000000000001FF05E
:10046000000000000000001FE0000000000000008D
:100470000FE00FFFFFFFFFFFE00FE03FFFFFFFFF79
:10048000FFF80FE07FFFFFFFFFFFFC07C0FFFFFF4C
:10049000FFFFFFFE07C0FFFFFFFFFFFFFE07C0FFDC
:1004A000FFFFFFFFFFFE07C0FFFFFFFFFFFFFE078D
:1004B000C0FFFFFFFFFFFFFE07C07FFFFFFFFFFF43
:1004C000FE07E03FFFFFFFFFFFFC07E01FFFFFFF0E
:1004D000FFFFF80FE003FFFFFFFFFFC00FE000008A
:1004E00000000000000FF0000000000000001FF0FE
:1004F000000000000000001FF800000000000000E5
:100500003FFC000000000000003FFC000000000075
:1005100000007FFE00000000000000FFFF00000060
:1005200000000001FFFF80000000000003FFFFC08B
:10053000000000000007FFFFF000000000001FFFA8
:10054000FFFC00000000007FFFFFFF000000000133
:10055000FFFFFFFFE000000007FFFFFFFFFC0000C0
:10056000007FFFFFFFFFFFF0000FFFFFFFFFFFFF18
:10057000FFFFFFFFFFFFFFFFFFFFFFFFFFFFFFFF8B
:10058000FFFFFFFFFFFFFFFFFFFFFFFFFFFFFFFF7B
:10059000FFFFFFFFFFFFFFFFFFFFFFFFFFFFFFFF6B
:1005A000FFFFFFFFFFFFFFFFFFFFFFFFFFFFFFFF5B
:1005B000FFFFFFFFFFFFFFFFFFFFFFFFFFFFFFFF4B
:1005C000FFFFFFFFFFFFFFFFFFFFFFFFFFFFFFFF3B
:1005D000FFFFFFFFFFFFFFFFFFFFFFFFFFFFFFFF2B
:1005E000FFFFFFFFFFFFFFFFFFFFFFFFFFFFFFFF1B
:1005F000FFFFFFFFFFFFFFFFFFFFFFFFFFFFFFE129
:10060000FFFFFFFFFFFFFFFFE0FFFFFFFFFFFFFF19
:10061000FFC0FFFFFFFFFFFFFFFFC0FFFFFFFFFE69
:100620000FFFFF80FFFFFFFFFC0FFFFF01FFFFFF3A
:10063000FFFC0FFFFF01FFFFFFFFFC0FFFFE01FFAD
:10064000FFFFFFFC0FFFFC03FFFFFFFFFC0FFFFCA2
:1006500003FFFFFFFFFC0FFFF807FFFFFFFFFC0F8B
:10066000FFF007FFFFFFFFFC0FFFE00000000000AE
:10067000000FFFE00000000000000FFFC0000000BE
:100680000000000FFF800000000000000FFF0000CE
:1006900000000000000FFE000000000000000FFC42
:1006A000000000000000000FF80000000000000043
:1006B0000FF8000000000000000FF800000000002C
:1006C00000000FF8000000000000000FF80000001C
:1006D000000000000FF8000000000000000FFC0008
:1006E0000000000000000FFFFFFFFFFFFFFFF80FFB
:1006F000FFFFFFFFFFFFFFFC0FFFFFFFFFFFFFFFFD
:10070000FC0FFFFFFFFFFFFFFFFC0FFFFFFFFFFFDF
:10071000FFFFFC0FFFFFFFFFFFFFFFFC0FFFFFFFCF
:10072000FFFFFFFFFC0FFFFFFFFFFFFFFFFC0FFFBF
:10073000FFFFFFFFFFFFFC0FFFFFFFFFFFFFFFFEBD
:100740001FFFFFFFFFFFFFFFFFFFFFFFFFFFFFFF99
:10075000FFFFFFFFFFFFFFFFFFFFFFFFFFFFFFFFA9
:10076000FFFFFFFFFFFFFFFFFFFFFFFFFFFFFFFF99
:10077000FFFFFFFFFFFFFFFFFFFFFFFFFFFFFFFF89
:10078000FFFFFFFFFFFFFFFFFFFFFFFFFFFFFFFF79
:10079000FFFFFFFFFFFFFFFFFFFFFFFFFFFFFFFF69
:1007A000FFFFFFFFFFFFFFFFFFFFFFFFFFFFFFFF59
:1007B000FFFFFFFFFFFFFFFFFFFFFFFFFFFFFFFF49
:1007C000FFFFFFFFFFFFFFFFFFFFFFFFFFFFFFFF39
:1007D000FFFFFFFFFFFFFFFFFFFFFFFFFFFFFFFF29
:1007E000FFF81FFFFFF1FFFFFFFFF01FFFFF00FFFC
:1007F000FFFFFFE01FFFFC00FFFFFFFFC01FFFF038
:1008000000FFFFFFFF801FFFC000FFFFFFFF001F73
:10081000FF8000FFFFFFFE001FFF0003FFFFFFFC44
:10082000001FFE001FFFFFFFF8001FFC003FFFFF3F
:10083000FFF0001FFC00FFFFFFFFE0001FF801FFBB
:10084000FFFFFF80001FF001FFFFFFFF00001FF010
:1008500003FFFFFFFE00001FF003FFFFFFFC00008F
:100860001FE007FFFFFFF800001FE007FFFFFFF09A
:1008700004001FE007FFFFFFC00C001FE007FFFFA1
:10088000FF801C001FC007FFFFFF003C001FC003CC
:10089000FFFFFC007C001FC003FFFFF800FC001FEF
:1008A000C001FFFFE001FC001FC000FFFFC003FC10
:1008B000001FE0003FFF0007FC001FE00007F800FA
:1008C00007FC001FE0000000000FFC001FE000001C
:1008D00000001FFC001FF0000000003FFC001FF0A4
:1008E000000000007FFC001FF000000000FFFC0083
:1008F0001FF800000001FFFC001FF800000003FFCC
:10090000FC001FFC00000007FFFC001FFE000000B1
:100910000FFFF8001FFF0000003FFFF0001FFF80E7
:1009200000007FFFC0001FFFE00001FFFE00001F6E
:10093000FFF80007FFFE00001FFFFF001FFFFE0083
:10094000001FFFFFFFFFFFFE00001FFFFFFFFFFF75
:10095000FE003FFFFFFFFFFFFFFF7FFFFFFFFFFFE7
:10096000FFFFFFFFFFFFFFFFFFFFFFFFFFFFFFFF97
:10097000FFFFFFFFFFFFFFFFFFFFFFFFFFFFFFFF87
:10098000FFFFFFFFFFFFFFFFFFFFFFFFFFFFFFFF77
:10099000FFFFFFFFFFFFFFFFFFFFFFFFFFFFFFFF67
:1009A000FFFFFFFFFFFFFFFFFFFFFFFFFFFFFFFF57
:1009B000FFFFFFFFFFFFFFFFFFFFFFFFFFFFFFFF47
:1009C000FFFFFFFFFFFFFFFFFFFFFFFFFFFFFFFF37
:1009D000FFFFFFFFFFFFFFFFFFFFFFFFFFFFFFFF27
:1009E000FFFFF3FFFFFFFFFFFFFFFF80FFFFFFFFA2
:1009F000FFFFFFFF003FFFFFFFFFFFFFFF003FFF85
:100A0000FE1FFFFFFFFE001FFFF80FFFFFFFFE00AE
:100A10000FFFF00FFFFFFFFE000FFFC00FFFFFFFF4
:100A2000FE0007FF8007FFFFFFFE0007FF001FFF1C
:100A3000FFFFFE0007FE003FFFFFFFFE0007FC0078
:100A4000FFFFFFFFFF0003FC01FFFFFFFFFF80032D
:100A5000F801FFFFCFFFFFC003F803FFFF83FFFF95
:100A6000E003F003FFFF01FFFFF803F003FFFE01C7
:100A7000FFFFFC03F003FFFC03FFFFFC03E003FFA9
:100A8000F803FFFFFE03E003FFF003FFFFFE03E0B8
:100A900003FFC003FFFFFE03E001FF8001FFFFFE35
:100AA00003E0007E0001FFFFFE07E000000000FF02
:100AB000FFFC07E0000000007FFFFC07E0000000F3
:100AC000003FFFF007E0000000000FFFC00FF00044
:100AD00000000000FC000FF0000000000000000F0C
:100AE000F0000000000000001FF8000008000000F7
:100AF000001FF8000018000000003FFC0000380054
:100B00000000003FFE00007C000000007FFF0000AE
:100B1000FC00000000FFFF8003FE00000001FFFF5B
:100B2000E00FFF00000003FFFFFFFFFF8000000752
:100B3000FFFFFFFFFFC000000FFFFFFFFFFFE00010
:100B4000003FFFFFFFFFFFF80000FFFFFFFFFFFF79
:100B5000FF0007FFFFFFFFFFFFFFFDFFFFFFFFFF9E
:100B6000FFFFFFFFFFFFFFFFFFFFFFFFFFFFFFFF95
:100B7000FFFFFFFFFFFFFFFFFFFFFFFFFFFFFFFF85
:100B8000FFFFFFFFFFFFFFFFFFFFFFFFFFFFFFFF75
:100B9000FFFFFFFFFFFFFFFFFFFFFFFFFFFFFFFF65
:100BA000FFFFFFFFFFFFFFFFFFFFFFFFFFFFFFFF55
:100BB000FFFFFFFFFFFFFFFFFFFFFFFFFFFFFFFF45
:100BC000FFFFFFFFFFFFF80FFFFFFFFFFFFFFFF03B
:100BD00007FFFFFFFFFFFFFFC007FFFFFFFFFFFF54
:100BE000FF8007FFFFFFFFFFFFFE0007FFFFFFFF84
:100BF000FFFFFC0007FFFFFFFFFFFFF00007FFFF05
:100C0000FFFFFFFFE00007FFFFFFFFFFFF80000780
:100C1000FFFFFFFFFFFF000007FFFFFFFFFFFC00DC
:100C20002007FFFFFFFFFFF8006007FFFFFFFFFF48
:100C3000E001E007FFFFFFFFFFC003E007FFFFFF4A
:100C4000FFFF000FE007FFFFFFFFFE001FE007FFB1
:100C5000FFFFFFF8007FE007FFFFFFFFF000FFE06E
:100C600007FFFFFFFFC003FFE007FFFFFFFF800F4D
:100C7000FFE007FFFFFFFE001FFFE007FFFFFFFC95
:100C8000003FFFE007FFFFFFF0000000000000074B
:100C9000FFE000000000000007FF800000000000EF
:100CA0000007FF0000000000000007FC000000003B
:100CB00000000007F80000000000000007E000004E
:100CC000000000000007C00000000000000007C096
:100CD0000000000000000007C0000000000000004D
:100CE00007C00000000000000007C0000000000076
:100CF000000007C00000000000000007C000000066
:100D00000000000007FFFFFFFFFFE007FFFFFFFFFE
:100D1000FFFFFFE007FFFFFFFFFFFFFFE007FFFF11
:100D2000FFFFFFFFFFE007FFFFFFFFFFFFFFE00701
:100D3000FFFFFFFFFFFFFFE007FFFFFFFFFFFFFFDA
:100D4000E007FFFFFFFFFFFFFFE007FFFFFFFFFFE1
:100D5000FFFFF00FFFFFFFFFFFFFFFFFFFFFFFFFA2
:100D6000FFFFFFFFFFFFFFFFFFFFFFFFFFFFFFFF93
:100D7000FFFFFFFFFFFFFFFFFFFFFFFFFFFFFFFF83
:100D8000FFFFFFFFFFFFFFFFFFFFFFFFFFFFFFFF73
:100D9000FFFFFFFFFFFFFFFFFFFFFFFFFFFFFFFF63
:100DA000FFFFFFFFFFFFFFFFFFFFFFFFFFFFFFFF53
:100DB000FFFFFFFFFFFFFFFFFFFFFFFFFFFFFFFF43
:100DC000FFFFFFFFFFFFFFFFFFFFFFFFFFFFFFFF33
:100DD000FFFFF3FFFFFFFFFFFFFFFF807FFFFFFF2E
:100DE000FFFFFFFF003FFFFFFFFFFFFFFF001FFFB1
:100DF000FFFFFE03FFFE000FF800000001FFFE00F2
:100E00000FF800000000FFFE0007F800000000FFE0
:100E1000FE0007F8000000007FFE0007F800000059
:100E200000FFFF0003F800000000FFFF0003F800D0
:100E30000FC001FFFF8003F8007FC001FFFFC00368
:100E4000F8007FC001FFFFE003F8007F8001FFFF93
:100E5000F803F8007F8001FFFFFC03F8007F8001AA
:100E6000FFFFFE03F8007F8001FFFFFF03F8007F14
:100E70008001FFFFFF03F8007F8001FFFFFF03F801
:100E8000007F8001FFFFFF03F8007FC000FFFFFE2F
:100E900007F8007FC0007FFFFE07F8007FC0003F1B
:100EA000FFFC07F8007FC0001FFFF807F8007FC0B5
:100EB0000007FFE00FF8007FE00000FE000FF800E1
:100EC0007FE0000000000FF8007FE0000000001F3E
:100ED000F8007FF0000000001FF0007FF00000002D
:100EE000003FE0007FF8000000003FE0007FF800D6
:100EF0000000007FE0007FFC00000000FFE0007FBA
:100F0000FE00000001FFE001FFFF00000003FFE022
:100F1000FFFFFF80000007FFFFFFFFFFC000000F83
:100F2000FFFFFFFFFFF000003FFFFFFFFFFFFC00A0
:100F300000FFFFFFFFFFFFFF8007FFFFFFFFFFFF37
:100F4000FFFFFFFFFFFFFFFFFFFFFFFFFFFFFFFFB1
:100F5000FFFFFFFFFFFFFFFFFFFFFFFFFFFFFFFFA1
:100F6000FFFFFFFFFFFFFFFFFFFFFFFFFFFFFFFF91
:100F7000FFFFFFFFFFFFFFFFFFFFFFFFFFFFFFFF81
:100F8000FFFFFFFFFFFFFFFFFFFFFFFFFFFFFFFF71
:100F9000FFFFFFFFFFFFFFFFFFFFFFFFFFFFFFFF61
:100FA000FFFFFFFFFFFFFFFFFFFFFFFFFFFFFFFF51
:100FB000FFFFFFFFFFF800FFFFFFFFFFFFFF000045
:100FC00007FFFFFFFFFFF0000000FFFFFFFFFFC074
:100FD0000000003FFFFFFFFF000000000FFFFFFFCA
:100FE000FC0000000007FFFFFFF00000000003FF0F
:100FF000FFFFC00000000001FFFFFF8000000000B5
:1010000000FFFFFF0000000000007FFFFE00000067
:101010000000003FFFFC0000000000003FFFF80060
:1010200000000000001FFFF00000000000001FFF94
:10103000E00000000000000FFFC000000000000002
:101040000FFFC0000007FFFF000FFF8000000FFF31
:10105000FFE007FF0000381FFFFFF807FF0001F067
:101060001FFFFFFC07FE0007F01FFFFFFE07FE004B
:101070000FF03FFFFFFE07FC003FE03FFFFFFE07D2
:10108000FC007FE03FFFFFFE07F800FFE01FFFFFCF
:10109000FE07F801FFE01FFFFFFC07F803FFE00F6A
:1010A000FFFFF807F007FFE003FFFFE007F007FF8F
:1010B000E0000E38000FE00FFFE0000000000FE03E
:1010C0001FFFF0000000000FE01FFFF00000000015
:1010D0000FE03FFFF0000000001FC03FFFF80000DE
:1010E00000001FC07FFFF8000000003FC07FFFFC32
:1010F000000000007FE0FFFFFC000000007FF0FF29
:10110000FFFE00000000FFFFFFFFFF00000001FFE7
:10111000FFFFFFFF80000003FFFFFFFFFFC0000095
:101120000FFFFFFFFFFFF000003FFFFFFFFFFFFE8D
:101130000000FFFFFFFFFFFFFFC00FFFFFFFFFFFEC
:10114000FFFFFFFFFFFFFFFFFFFFFFFFFFFFFFFFAF
:10115000FFFFFFFFFFFFFFFFFFFFFFFFFFFFFFFF9F
:10116000FFFFFFFFFFFFFFFFFFFFFFFFFFFFFFFF8F
:10117000FFFFFFFFFFFFFFFFFFFFFFFFFFFFFFFF7F
:10118000FFFFFFFFFFFFFFFFFFFFFFFFFFFFFFFF6F
:10119000FFFFFFFFFFFFFFFFFFFFFFFFFFFFFFFF5F
:1011A000FFFFFFFFFFFFFFFFFFFFFFE1FFFFFFFF6D
:1011B000FFFFFF0000FFFFFFFFFFFFF80000FFFF42
:1011C000FFFFFFFFF80000FFFFFFFFFFFFF8000039
:1011D000FFFFFFFFFFFFF80000FFFFFFFFFFFFF82B
:1011E0000001FFFFFFFFFFFFF8000FFFFFFFFFFF02
:1011F000FFF8001FFFFFFFFFFFFFF8003FFFFFFFAB
:10120000FFFFF7F8003FFFFFFFFFFF83F8003FFFFE
:10121000FFFFFFFE03F8003FFFFFFFFFF803F800AA
:101220003FFFFFFFFFE003F8003FFFFFFFFF00036A
:10123000F8003FFFFFFFFC0003F8003FFFFFFFF057
:101240000003F8003FFFFFFF800003F8003FFFFFAF
:10125000FE000003F8003FFFFFF8000003F8003F26
:10126000FFFFC0000003F8003FFFFF00000003F88D
:10127000003FFFFC0000000FF8003FFFF0000000FF
:101280007FF8003FFF80000001FFF8003FFE0000F4
:10129000000FFFF8003FF80000007FFFF8003FC09C
:1012A000000001FFFFF8003F0000000FFFFFF80003
:1012B0003C0000003FFFFFF80030000001FFFFFF8F
:1012C000F8000000000FFFFFFFF8000000003FFFE4
:1012D000FFFFF800000001FFFFFFFFF8000000071C
:1012E000FFFFFFFFF80000003FFFFFFFFFF80000D7
:1012F00001FFFFFFFFFFF8000007FFFFFFFFFFF800
:1013000000003FFFFFFFFFFFF80001FFFFFFFFFFAF
:10131000FFF80007FFFFFFFFFFFFF8003FFFFFFFA1
:10132000FFFFFFF800FFFFFFFFFFFFFFF807FFFFD2
:10133000FFFFFFFFFFFC3FFFFFFFFFFFFFFFFFFF80
:10134000FFFFFFFFFFFFFFFFFFFFFFFFFFFFFFFFAD
:10135000FFFFFFFFFFFFFFFFFFFFFFFFFFFFFFFF9D
:10136000FFFFFFFFFFFFFFFFFFFFFFFFFFFFFFFF8D
:10137000FFFFFFFFFFFFFFFFFFFFFFFFFFFFFFFF7D
:10138000FFFFFFFFFFFFFFFFFFFFFFFFFFFFFFFF6D
:10139000FFFFFFFFFFFFFFFFFFFFFFFFFFFFFFFF5D
:1013A000FFFFFFFFFFFFFFFFFFFFFFFFFFFFFFFF4D
:1013B00087FFFFFFFFFFFFFFFC007FFFFFFE003FF7
:1013C000FFF0001FFFFFF0000FFFC00007FFFFE06E
:1013D0000003FF800003FFFF800000FF000001FF0B
:1013E000FF0000007F000000FFFE0000003E000044
:1013F000007FFC0000001C0000003FF80000001807
:101400000000003FF8000000080000001FF000008E
:1014100000000000001FF0000000000000001FF0AE
:10142000000000000000000FE007E0000007FFC020
:101430000FE01FF800001FFFF00FE03FFC00003F2F
:10144000FFF807C07FFE00007FFFFC07C07FFF00A2
:10145000007FFFFC07C0FFFF80003FFFFE07C0FFCB
:10146000FF80003FFFFE07C0FFFFC0001FFFFE0719
:10147000C0FFFFE0000FFFFE07C07FFFE0000FFF8F
:10148000FE07C07FFFF00007FFFE07C07FFFF000F0
:1014900003FFFE07E03FFFF00003FFFC07E01FFF34
:1014A000C00001FFFC0FE007FF800000FFF80FE025
:1014B00000780000007FF00FF000000000001FC067
:1014C0001FF0000000000000001FF00000000000FE
:1014D00000001FF8000001800000003FF80000013C
:1014E000C00000003FFC000003E00000007FFE00A1
:1014F0000007F0000000FFFF00000FF0000001FFF8
:10150000FF80001FF8000003FFFFC0003FFE000047
:1015100007FFFFF0007FFF00000FFFFFFE01FFFF4E
:1015200080003FFFFFFFFFFFFFF001FFFFFFFFFF16
:10153000FFFFFE1FFFFFFFFFFFFFFFFFFFFFFFFF9C
:10154000FFFFFFFFFFFFFFFFFFFFFFFFFFFFFFFFAB
:10155000FFFFFFFFFFFFFFFFFFFFFFFFFFFFFFFF9B
:10156000FFFFFFFFFFFFFFFFFFFFFFFFFFFFFFFF8B
:10157000FFFFFFFFFFFFFFFFFFFFFFFFFFFFFFFF7B
:10158000FFFFFFFFFFFFFFFFFFFFFFFFFFFFFFFF6B
:10159000FFFFFFFFFFFFFFFFFFFFFFC001FFFFFF98
:1015A000FFFFFFFE00003FFFFFFFFFFFF800000FFF
:1015B000FFFFFFFFFFE0000007FFFFFFFFFFC0008E
:1015C0000003FFFFFFFFFF80000000FFFFFFBFFFE2
:1015D00000000000FFFFFF1FFE000000007FFFFE75
:1015E0000FFC000000003FFFFE07F8000000003F76
:1015F000FFFC07F8000000001FFFFC07F0000000E0
:10160000001FFFF80FF0000000000FFFF80FF000C0
:101610000000000FFFF00FE0000000000FFFF00FD0
:10162000E001FFFE000FFFE01FE00FFFFFC00FFF14
:10163000C01FC03FFFFFF00FFF801FC07FFFFFF8FC
:1016400007FF003FC0FFFFFFF80FFE003FC0FFFF96
:10165000FFF80FFC007FC0FFFFFFF80FF8007FC00E
:10166000FFFFFFF80FE000FFC07FFFFFF80F8000D3
:10167000FFC07FFFFFF01E0001FFC03FFFFFF0181B
:101680000001FFE00FFFFFE0000003FFE001FFFFAC
:10169000E0000007FFE000000000000007FFF0008E
:1016A00000000000000FFFF00000000000001FFF1E
:1016B000F00000000000003FFFF800000000000004
:1016C0007FFFFC000000000000FFFFFC00000000A6
:1016D0000001FFFFFE000000000003FFFFFF00000D
:1016E00000000007FFFFFF80000000001FFFFFFF5A
:1016F000C0000000003FFFFFFFF000000000FFFF00
:10170000FFFFFC00000003FFFFFFFFFF0000001FC2
:10171000FFFFFFFFFFE00000FFFFFFFFFFFFFE00F6
:101720001FFFFFFFFFFFFFFFFFFFFFFFFFFFFFFFA9
:10173000FFFFFFFFFFFFFFFFFFFFFFFFFFFFFFFFB9
:10174000FFFFFFFFFFFFFFFFFFFFFFFFFFFFFFFFA9
:10175000FFFFFFFFFFFFFFFFFFFFFFFFFFFFFFFF99
:10176000FFFFFFFFFFFFFFFFFFFFFFFFFFFFFFFF89
:10177000FFFFFFFFFFFFFFFFFFFFFFFFFFFFFFFF79
:10178000FFFFFFFFFFFFFFFFFFFFFFFFFFFFFFFF69
:10179000FFFFFFFFFFFFFFFFFFFFF9FF3FE7FCFF3A
:1017A000FFFFFFF9FF3FE7FCFFFFFFFFF9FF3FE708
:1017B000FCFFFFFFFFF9EF3DE7BCFFF83FFFF9E754
:1017C0003DE73CFFC003FFF9E73DE73CFF0000FFBA
:1017D000F9E73DE73CFC00007FF9E73DE73CF80F07
:1017E000F01FF9E73DE73CF03FFC0FF9E73DE73C30
:1017F000E0FFFE07FDEFFDFFBDC1F00F87FFFFFF1C
:10180000FFFFC3C00383FC00000000078001C3E0AA
:1018100000000000070000E1C0000000000E000012
:10182000E180000000000E00007087FFFFFFFFFC5A
:101830000000700FFFFFFFFFFC0000300FFFFE00F5
:1018400000000000300FFFFE0000000000300FFF1E
:10185000FE0000000000300FFFFFFFFFFC000070E3
:1018600087FFFFFFFFFC00007080000000000E00FB
:101870000070C0000000000E0000E1E00000000069
:10188000070000E1F800000000078001C3FFFFFF30
:10189000FFFFC3C003C3FFFFFFFFFFC1F00F87FFC0
:1018A000FFFFFFFFE0FFFE07FFFFF83FFFF03FFCF9
:1018B0000FFFFFC007FFF80FF01FFFFF8001FFFCC5
:1018C00000007FFFFE0000FFFF0000FFFFFE0000A2
:1018D000FFFFC003FFFFFC07C07FFFF83FFFFFF8DB
:1018E0001FF07FFFFFFFFFFFF83FF83FFFFFFFFF05
:1018F000FFF87FFC3FFFFFFFFFFFF87FFC3FFFFF8C
:10190000FFFFFFF87FFC3FFFFFFFFFFFF87FFC3F7B
:10191000FFFFFFFFFFF87FFC3FFFFFFFFFFFF87FA8
:10192000F83FFFFFFFFFFFF83FF87FFFFFFFFFFFDC
:10193000FC3FF87FFFFFFFFFFFFFFFFFFFFFFFFF01
:10194000FFFFFFFFFFFFFFFFFFFFFFFFFFFFFFFFA7
:10195000FFFFFFFFFE1FFFFFFFFFFFFFFFF80FFF6F
:10196000FFFFFFFFFFFFF807FFFFFFFFFFFFFFF194
:10197000C7FFFFFFFFFFFFFFF3E7FFFFFFFFFFFFD3
:10198000FFF1E7FFFFFFFFFFFFFFF887FFFFFFFF0C
:10199000FFFFFFF80FFFFFFFFFFFFFFFFC1FFFFF31
:1019A000FFFFFFFFFFFFFFFFFFFFFFFFFFFFFFFF47
:1019B000FFFFFFFFFFFFFFFFFFFFFFFFFFFFFFFF37
:1019C000FFFFFFFFFFFFFFFFFFFFFFFFFFFFFFFF27
:1019D000FFFFFFFFFFFFFFFFFFFFFFFFFFFFFFFF17
:1019E000FFFFFF0011241FBECFE5D4E0DEBFCDBF57
:1019F00011E0A0E6B0E0E6EAF5E202C005900D9243
:101A0000A439B107D9F714E0A4E9B1E001C01D92EF
:101A1000A431B107E1F70E9445100C94D1120C9447
:101A20000000BF92CF92DF92EF92FF920F931F932D
:101A3000CF93DF93282F6B01B42E90E087709070C6
:101A4000892B11F0287F285FF22EF694F694F694F5
:101A500020E030E040E25EE4B09B09C0CA0101979B
:101A6000F1F72F5F3F4F81E020393807A9F7C4987D
:101A7000C29884E20E942110C29A00E010E0EF2C8C
:101A8000FF2409C08B2D0E9421102196CE15DF0561
:101A9000CCF30F5F1F4F0C151D0518F4C0E0D0E00C
:101AA000F5CFC49ADF91CF911F910F91FF90EF90E6
:101AB000DF90CF90BF9008950F931F93062F20E0E3
:101AC00030E040E25EE4B09B09C0FA013197F1F7E3
:101AD0002F5F3F4F91E020393907A9F7C498C2988A
:101AE0001DE0912F9A95F1F70E942110C29A812F43
:101AF0008A95F1F7802F0E9421101A95F1F7C49A68
:101B00001F910F9108951F93C498C2981DE0912FC3
:101B10009A95F1F70E9421101A95F1F7C49A1F9136
:101B2000089582E264E00E945C0D80E20E94830DD1
:101B30008FEF0E94830D089582E260EC0E945C0D9D
:101B400080E20E94830D0895DF92EF92FF920F933F
:101B50001F93CF93DF938C01E62EC498C2988DE03B
:101B6000F82E8F2D8A95F1F7F80180810E942110BF
:101B7000C29AFA94F1F7D02EE801FF240894E10804
:101B8000F10803C088810E9421109E012D19822F27
:101B900090E021968E159F05ACF3C49ADF91CF910A
:101BA0001F910F91FF90EF90DF900895DF93CF93F7
:101BB00000D000D00F92CDB7DEB79EE499838A8320
:101BC0008FE48B836C834D83CE01019662E00E948B
:101BD000A40DCE01039663E00E94A40D0F900F9018
:101BE0000F900F900F90CF91DF910895DF92EF92B9
:101BF000FF920F931F93DF93CF93CDB7DEB7289754
:101C00000FB6F894DEBF0FBECDBFD82E142FF22E24
:101C100084E48983DA826B8385E48C834D832E830D
:101C20000F83E886CE01019663E00E94A40DCE01E9
:101C3000049665E00E94A40D8D2D612F4F2D0E940A
:101C4000D60D28960FB6F894DEBF0FBECDBFCF914C
:101C5000DF911F910F91FF90EF90DF900895DF9338
:101C6000CF93CDB7DEB728970FB6F894DEBF0FBE7F
:101C7000CDBFC19888EE93E028EC30E0F9013197B0
:101C8000F1F70197D9F7C19A88EE93E028EC30E09C
:101C9000F9013197F1F70197D9F780E690E064E018
:101CA0000E94A40D84E690E064E00E94A40D80E709
:101CB00090E062E00E94A40D84E790E062E00E9460
:101CC000A40D86E790E062E00E94A40D8AE790E010
:101CD00062E00E94A40D84E489831A828FE08B83E2
:101CE00085E48C8389EF8D831E821F821886CE0146
:101CF000019663E00E94A40DCE01049665E00E9467
:101D0000A40D80E069EF40E00E94D60D28960FB642
:101D1000F894DEBF0FBECDBFCF91DF9108950E9432
:101D20002F0E8AE990E06EE10E94A40D0E949C0DA6
:101D300008950E942F0E8CE790E06EE10E94A40DA2
:101D40000E949C0D08956F927F928F929F92AF9206
:101D5000BF92CF92DF92EF92FF920F931F93CF9398
:101D6000DF93282F3B01042FF52E90E087709070B1
:101D7000892B11F0287F285F122F1695169516953E
:101D800020E030E040E25EE4B09B09C0CA01019768
:101D9000F1F72F5F3F4F81E020393807A9F7C4984A
:101DA000C29884E20E942110C29A812E9924802F29
:101DB0009F2D9C01790100E010E054010DC0F60157
:101DC00081916F010E9421102196CA15DB05BCF399
:101DD0000F5F1F4FE80CF91C0615170520F467016B
:101DE000C0E0D0E0F2CFC49ADF91CF911F910F9164
:101DF000FF90EF90DF90CF90BF90AF909F908F902B
:101E00007F906F9008952F923F924F925F926F92C2
:101E10007F928F929F92AF92BF92CF92DF92EF927A
:101E2000FF920F931F93DF93CF93CDB7DEB76197E8
:101E30000FB6F894DEBF0FBECDBF982FB62E190196
:101E40002A0137014801D98AC88A8A2DAA2009F0B7
:101E500048C0292F2695269526952B87A62EA69431
:101E6000A694A694EA863327212F102F0F2D0987D9
:101E7000122DFF24E52CD42CC32CFC2C8B856A2D31
:101E8000462D202F022DEC2C9F870E94F60D9F855A
:101E9000B91A6301C218D3080894C11CD11C8B2D38
:101EA000B601E889F98940810E94110D0E94910DC7
:101EB00080ED97E028EC30E0F9013197F1F70197D8
:101EC000D9F78B856A2D4A852985012FEF2C0E9431
:101ED000F60D8B2DB601E889F98940810E94110D1C
:101EE00070C0F92FF695F695F695FC87262F269566
:101EF000269526952D873327212F102F0F2DFF2470
:101F0000E52CD42CC32CB91ABE865301A218B308F1
:101F1000813041F568860F832E82CD828F2F6D85AB
:101F2000462D202F022DEC2C0E94F60D6501089401
:101F3000C11CD11C8E85B601488959890E94A30E07
:101F40000E94910D88EB9BE028EC30E0F90131977D
:101F5000F1F70197D9F78C856D8548852F810E8122
:101F6000ED8027C06C820B832A82C9828C856D85A7
:101F7000462D202F022DEC2C0E94F60D65010894B1
:101F8000C11CD11C8E85B601488959890E94A30EB7
:101F90000E94910D80ED97E028EC30E0F901319737
:101FA000F1F70197D9F78C856D854C812B810A81DA
:101FB000E9800E94F60D8E85B601488959890E94F4
:101FC000A30E61960FB6F894DEBF0FBECDBFCF91C2
:101FD000DF911F910F91FF90EF90DF90CF90BF9016
:101FE000AF909F908F907F906F905F904F903F90B9
:101FF0002F9008951F93CF93DF93EC01162F80E06D
:1020000069EF40E00E94D60D112339F480E86AEFB1
:1020100070E04FEF0E94110D06C080E86AEF70E09B
:10202000AE010E94A30E82E264EC0E945C0D80E28D
:102030000E94830D8FEF0E94830DDF91CF911F913E
:10204000089520E03DE0C79887FF02C0C59A01C00F
:10205000C598932F9A95F1F7C79A932F9A95F1F710
:102060002F5F283011F0880FEECF089588E08ABBEB
:102070001BBA19BA86EB87BB18BA16BA11BA12BACC
:1020800010BA14BA15BA13BA08958F929F92AF92EC
:10209000BF92CF92DF92EF92FF920F931F93DF9345
:1020A000CF9300D0CDB7DEB70E9436100E94990EB4
:1020B00088E893E128EC30E0F9013197F1F70197D6
:1020C000D9F78FEF90E09A838983CE01019660E083
:1020D0000E94FA0F80E49CE928EC30E0F901319786
:1020E000F1F70197D9F70E948F0E80E197E228EC73
:1020F00030E0F9013197F1F70197D9F780E090E0EE
:10210000FC01EC5AFF4FE491DC01AC56BE4FEC935E
:102110000196803F9105A1F780E46FE620E030E072
:1021200040E050E0F7E2EF2EF12C012D112DE4E913
:10213000CE2EE1E0DE2EAA24A3940E94030F80E0BD
:1021400090E0FC01EC5BFE4FE491DC01AC56BE4F2D
:10215000EC93019621E08F39920799F780E067E2CE
:1021600020E030E040E050E072E5E72EF12C012D58
:10217000112D94E9C92E91E0D92EAA24A3940E948E
:10218000030F80E467E521EE30E040E050E0BAEF75
:10219000EB2EF12C012D112DA7E2CA2EA1E0DA2E93
:1021A0000E94030F80E090E0FC01E559FC4EE491B1
:1021B000DC01AC56BE4FEC93019621E0883F9207BC
:1021C00099F788E26FE627E730E040E050E0FEEA6A
:1021D000EF2EF12C012D112DE4E9CE2EE1E0DE2EC3
:1021E000AA24A3940E94030F80E090E0FC01E5562E
:1021F000F84FE491DC01AC56BE4FEC93019621E020
:10220000883F920799F788E26FE62AEA30E040E0DB
:1022100050E071EEE72EF12C012D112D94E9C92E1D
:1022200091E0D92EAA24A3940E94030F88E56FE6BB
:1022300026E630E040E050E0B2E7EB2EF12C012D35
:10224000112DA8EBCA2EA0E0DA2E0E94030FF8ECA5
:102250008F2E912CE8E0BE2E89819A8101969A8377
:1022600089830E948F0E80E197E2F4013197F1F7A4
:102270000197D9F780E090E0FC01E555FC4FE4912F
:10228000DC01AC56BE4FEC93019621E0883F9207EB
:1022900099F788E26FE62DE230E040E050E074E626
:1022A000E72EF12C012D112D94E9C92E91E0D92EA4
:1022B000AA24A3940E94030F80E197E2F4013197CE
:1022C000F1F70197D9F780E090E0FC01ED55FA4F66
:1022D000E491DC01AC56BE4FEC93019621E0883FBF
:1022E000920799F788E26FE62DE230E040E050E097
:1022F000B4E6EB2EF12C012D112DA4E9CA2EA1E09C
:10230000DA2EAA24A3940E94030F80E197E2F4013D
:102310003197F1F70197D9F780E090E0FC01E5569D
:10232000F84FE491DC01AC56BE4FEC93019621E0EE
:10233000883F920799F788E26FE62DE230E040E0AF
:1023400050E0F4E6EF2EF12C012D112DE4E9CE2E14
:10235000E1E0DE2EAA24A3940E94030F80E197E21D
:10236000F4013197F1F70197D9F780E090E0FC0193
:10237000ED56F64FE491DC01AC56BE4FEC9301965E
:1023800021E0883F920799F788E26FE62DE230E07E
:1023900040E050E074E6E72EF12C012D112D94E978
:1023A000C92E91E0D92EAA24A3940E94030F80E1A4
:1023B00097E2F4013197F1F70197D9F780E090E0C7
:1023C000FC01E557F44FE491DC01AC56BE4FEC93B1
:1023D000019621E0883F920799F788E26FE62DE2A7
:1023E00030E040E050E0B4E6EB2EF12C012D112D51
:1023F000A4E9CA2EA1E0DA2EAA24A3940E94030F16
:1024000080E197E2F4013197F1F70197D9F780E085
:1024100090E0FC01ED57F24FE491DC01AC56BE4F69
:10242000EC93019621E0883F920799F788E26FE6E6
:102430002DE230E040E050E0F4E6EF2EF12C012DEB
:10244000112DE4E9CE2EE1E0DE2EAA24A3940E9411
:10245000030F80E197E2F4013197F1F70197D9F783
:1024600080E090E0FC01E558F04FE491DC01AC56CF
:10247000BE4FEC93019621E0883F920799F788E2DE
:102480006FE62DE230E040E050E074E6E72EF12CFC
:10249000012D112D94E9C92E91E0D92EAA24A394DF
:1024A0000E94030F80E197E2F4013197F1F7019761
:1024B000D9F780E090E0FC01ED58FE4EE491DC019C
:1024C000AC56BE4FEC93019621E0883F920799F7F6
:1024D00088E26FE62DE230E040E050E0B4E6EB2E1B
:1024E000F12C012D112DA4E9CA2EA1E0DA2EAA2487
:1024F000A3940E94030F80E197E2F4013197F1F772
:102500000197D9F780E090E0FC01E559FC4EE49199
:10251000DC01AC56BE4FEC93019621E0883F920758
:1025200099F788E26FE62DE230E040E050E0F4E613
:10253000EF2EF12C012D112DE4E9CE2EE1E0DE2E5F
:10254000AA24A3940E94030F80E197E2F40131973B
:10255000F1F70197D9F780E090E0FC01ED59FA4ED0
:10256000E491DC01AC56BE4FEC93019621E0883F2C
:10257000920799F788E26FE62DE230E040E050E004
:1025800074E6E72EF12C012D112D94E9C92E91E06E
:10259000D92EAA24A3940E94030F8BB38B258BBB47
:0625A0005BCEF894FFCFB2
:1025A60001F900000CD7D69D218F22F003EA040A18
:1025B6002C55F01F3A1A3B083C331101322255AA1A
:1025C60055AA55AA1100000000000000001E1E1E9C
:1025D6001E1E1E1E1E010000000032180000000014
:1025E60000000000000000000000000F01000000D5
:1025F6000000000000000000FFFFFFFFF07FFFE08B
:102606003FFFC01FFF800FFF800FFF800FFF800F6F
:10261600FF800FFFC01FFFE03FFFF07FFFFFFFFFC0
:10262600FFFFFF00FFFC003FF8000FF00007E0008F
:1026360007E00003C03E03C07F01C0FF81C1FF81E8
:1026460081FF8181FF81C1FF81C0FF81C07F01C001
:102656003E03E00003E00007F00007F8000FFC006F
:102666003FFF00FFFFFFFFFE003FFE003FFE003F73
:10267600FE003FFE003FFE003FFE003FFE003FFE25
:10268600003FFE003FFE003FFE003FFE003FFE0013
:102696003FFE003FFE003FFE003FFE003FFE003FC4
:1026A600FE003FFE003FFE003FFE003FFE003FFEF5
:1026B600003FFE003FFE003FFE003FFE003FFE00E3
:1026C6003FFE003FFE003FFE003FFE003FFE003F94
:0426D600FE003F00C3
:00000001FF
