:100000000C94E00B0C94FD0B0C94FD0B0C94FD0B6D
:100010000C94FD0B0C94DB100C94FD0B0C94FD0B5D
:100020000C94FD0B0C949B100C94FD0B0C94FD0B8D
:100030000C94FD0B0C94B2100C94FD0B0C94FD0B66
:100040000C94FD0B0C94FD0B0C94FD0B0C94FD0B10
:100050000C94FD0BFFFFFFFFFFFFFFFFFFFFFFFF04
:10006000FFFFFFFFFFFFFFFFFFFFFFFFFFFFFFFFA0
:10007000FFFFFFFFFFFFFFFFFEFBEFBFFFFFFEFBEA
:10008000EFBFFFFFFEDB6DBE01FFFEDB6DBC00FFBF
:10009000FEDB6DB8FC7FFEFFEFF3873FFFFFFFE75E
:1000A000039FFC000006019FF800000C00CFF1FF49
:1000B000FFF800CFF3FF800000CFF3FF800000CFF8
:1000C000F1FFFFFC00CFF8000004008FFE000006E7
:1000D000019FFFFFFFE3031FFFFFFFF1FE3FFFFC58
:1000E0000FF8787FFFF803FC01FFFFF0C3FF87FFE5
:1000F000FFE3F1FFFFFFFFE7F1FFFFFFFFE7F9FF7E
:10010000FFFFFFE7F9FFFFFFFFE3F1FFFFFFFFF74F
:10011000F3FFFFFFFFFFFFFFFFFFFFF1FFFFFFFF09
:10012000FFE0FFFFFFFFFFECFFFFFFFFFFE4FFFF2C
:10013000FFFFFFF1FFFFFFFFFFFFFFFFFFFFFFFFDD
:10014000FFFFFFFFFFFFFFFFFFFFFFFFFFFFFFFFBF
:10015000FFFFFFFFFE007FFFFFFC003FFFFFF800F7
:100160001FFFFC0000003FF00000000FE000000057
:1001700007E000000007E1FFFFFF87E3FFFFFF87C5
:10018000E3FFFFFFC7E3800001C7E3800001C7E38F
:10019000800001C7E3800001C7E3800001C7E3805E
:1001A0000001C7E3800001C7E3800001C7E38000CE
:1001B00001C7E3800001C7E3800001C7E3800001BD
:1001C000C7E3DFFFFFC7E1FFFFFFC7E1FFFFFF87D7
:1001D000E3FFFFFFC7E3800001C7E3800001C7E33F
:1001E000800001C7E3800001C7E3800001C7E3800E
:1001F0000001C7E3800001C7E3800001C7E380007E
:1002000001C7E3800001C7E3800001C7E38000016C
:10021000C7E3C00003C7E1FFFFFFC7E1FFFFFFC760
:10022000E3FFFFFFC7E3C00003C7E3800001C7E3AC
:10023000800001C7E3800001C7E3800001C7E380BD
:100240000001C7E3800001C7E3800001C7E380002D
:1002500001C7E3800001C7E3800001C7E38000011C
:10026000C7E3C00003C7E3FFFFFFC7E3FFFFFF874C
:10027000E3FFFFFFC7E3C00003C7E3800001C7E35C
:10028000800001C7E3800001C7E3800001C7E3806D
:100290000001C7E3800001C7E3800001C7E38000DD
:1002A00001C7E3800001C7E3800001C7E3800001CC
:1002B000C7E3C00001C7E3FFFFFF87E3FFFFFFC7FE
:1002C000E1FFFFFF87E000000007F00000000FF8EB
:1002D0000000001FFFFFFFFFFFFFFFFFFFFFFFFF0B
:1002E000FFFFFFFFFFFFFFFFFFFFFFFFFFFFFFFF1E
:1002F000FFFFF8FFFFFFFFF87FFFFFFFF83FFFFF63
:10030000FFF91FFFFFFFF98FFFFFFFF9C7FFFFFF97
:10031000F9E3FFFFFFF9F1FFFFFFF9F8FFFFFFF936
:10032000FC7FFFFFF9FE3FFFFFF9FF1FFFFFF80013
:10033000000007F800000007F800000007F9FF1FA1
:10034000FFFFF9FE3FFFFFF9FC7FFFFFF9F8FFFF1A
:10035000FFF9F1FFFFFFF9E3FFFFFFF9C7FFFFFF21
:10036000F98FFFFFFFF91FFFFFFFF83FFFFFFFF8C7
:100370007FFF0007F8FFFF0007FFFFFF0007FFFFF9
:10038000FF0007FFFFFFFFFFFFFFFFFFFFFFFFFF74
:10039000FFFFFFFFFFFFFFFFFFFFFFFFFFFFFFFF6D
:1003A000FFFFFFFFFFFFFFFFF00007FFFFF0000769
:1003B000FFFFF00007FFFFF00007FFFFFFFFFFFF59
:1003C000FFFFFFFFFFFFFFFFFFFFFFFFFFFFFFFF3D
:1003D000FFFFFFFFFFFFFFFFFFFFFFFFFFFFFF002C
:1003E0000007FFFF000007FFFF000007FFFF0000FE
:1003F00007FFFFFFFFFFFFFFFFFFFFFFFFFFFFFF05
:10040000FFFFFFFFFFFFFFFFFFFFFFFFFFFFFFFFFC
:10041000FFFFFFFFFFFFFFFFFFFFFFFFFFFFFFFFEC
:10042000FFFFFFFFFFFFFFFFFFFFFFFFFFFFFFFFDC
:10043000FFFFFFFFFFFFFFFFFFFFFFFFFFFFFFFFCC
:10044000FFFFFFFFFFFFFFFFF0000FFFFFFFFFFFBA
:10045000FC0000007FFFFFFFFFE000000007FFFF40
:10046000FFFF0000000001FFFFFFFC000000000094
:100470003FFFFFF000000000001FFFFFC000000072
:10048000000007FFFF80000000000003FFFF0000E6
:100490000000000001FFFE00000000000000FFFC63
:1004A000000000000000007FFC00000000000000D1
:1004B0003FF8000000000000003FF00000000000D6
:1004C00000001FF0000000000000001FE00000001E
:1004D000000000000FE00FFFFFFFFFFFE00FE03F15
:1004E000FFFFFFFFFFF80FE07FFFFFFFFFFFFC07AD
:1004F000C0FFFFFFFFFFFFFE07C0FFFFFFFFFFFF83
:10050000FE07C0FFFFFFFFFFFFFE07C0FFFFFFFF6B
:10051000FFFFFE07C0FFFFFFFFFFFFFE07C07FFFDB
:10052000FFFFFFFFFE07E03FFFFFFFFFFFFC07E0CD
:100530001FFFFFFFFFFFF80FE003FFFFFFFFFFC0FC
:100540000FE0000000000000000FF00000000000BD
:1005500000001FF0000000000000001FF800000075
:10056000000000003FFC000000000000003FFC0015
:100570000000000000007FFE00000000000000FFFF
:10058000FF00000000000001FFFF800000000000ED
:1005900003FFFFC0000000000007FFFFF0000000A5
:1005A00000001FFFFFFC00000000007FFFFFFF00B6
:1005B00000000001FFFFFFFFE000000007FFFFFF5A
:1005C000FFFC0000007FFFFFFFFFFFF0000FFFFFB9
:1005D000FFFFFFFFFFFFFFFFFFFFFFFFFFFFFFFF2B
:1005E000FFFFFFFFFFFFFFFFFFFFFFFFFFFFFFFF1B
:1005F000FFFFFFFFFFFFFFFFFFFFFFFFFFFFFFFF0B
:10060000FFFFFFFFFFFFFFFFFFFFFFFFFFFFFFFFFA
:10061000FFFFFFFFFFFFFFFFFFFFFFFFFFFFFFFFEA
:10062000FFFFFFFFFFFFFFFFFFFFFFFFFFFFFFFFDA
:10063000FFFFFFFFFFFFFFFFFFFFFFFFFFFFFFFFCA
:10064000FFFFFFFFFFFFFFFFFFFFFFFFFFFFFFFFBA
:10065000FFFFFFFFFFFFFFFFFFFFFFFFFFFFFFFFAA
:10066000FFFFFFE1FFFFFFFFFFFFFFFFE0FFFFFFD7
:10067000FFFFFFFFFFC0FFFFFFFFFFFFFFFFC0FF08
:10068000FFFFFFFE0FFFFF80FFFFFFFFFC0FFFFFDD
:1006900001FFFFFFFFFC0FFFFF01FFFFFFFFFC0F4C
:1006A000FFFE01FFFFFFFFFC0FFFFC03FFFFFFFF4B
:1006B000FC0FFFFC03FFFFFFFFFC0FFFF807FFFF2E
:1006C000FFFFFC0FFFF007FFFFFFFFFC0FFFE00045
:1006D00000000000000FFFE00000000000000FFF1E
:1006E000C00000000000000FFF80000000000000BC
:1006F0000FFF000000000000000FFE0000000000DF
:1007000000000FFC000000000000000FF8000000D7
:10071000000000000FF8000000000000000FF800CB
:100720000000000000000FF8000000000000000FB3
:10073000F8000000000000000FF8000000000000BA
:10074000000FFC000000000000000FFFFFFFFFFF94
:10075000FFFFF80FFFFFFFFFFFFFFFFC0FFFFFFF93
:10076000FFFFFFFFFC0FFFFFFFFFFFFFFFFC0FFF7F
:10077000FFFFFFFFFFFFFC0FFFFFFFFFFFFFFFFC7F
:100780000FFFFFFFFFFFFFFFFC0FFFFFFFFFFFFF5C
:10079000FFFC0FFFFFFFFFFFFFFFFC0FFFFFFFFF4F
:1007A000FFFFFFFE1FFFFFFFFFFFFFFFFFFFFFFF3A
:1007B000FFFFFFFFFFFFFFFFFFFFFFFFFFFFFFFF49
:1007C000FFFFFFFFFFFFFFFFFFFFFFFFFFFFFFFF39
:1007D000FFFFFFFFFFFFFFFFFFFFFFFFFFFFFFFF29
:1007E000FFFFFFFFFFFFFFFFFFFFFFFFFFFFFFFF19
:1007F000FFFFFFFFFFFFFFFFFFFFFFFFFFFFFFFF09
:10080000FFFFFFFFFFFFFFFFFFFFFFFFFFFFFFFFF8
:10081000FFFFFFFFFFFFFFFFFFFFFFFFFFFFFFFFE8
:10082000FFFFFFFFFFFFFFFFFFFFFFFFFFFFFFFFD8
:10083000FFFFFFFFFFFFFFFFFFFFFFFFFFFFFFFFC8
:10084000FFFFFFFFFFF81FFFFFF1FFFFFFFFF01F9C
:10085000FFFF00FFFFFFFFE01FFFFC00FFFFFFFFA8
:10086000C01FFFF000FFFFFFFF801FFFC000FFFF62
:10087000FFFF001FFF8000FFFFFFFE001FFF0003C0
:10088000FFFFFFFC001FFE001FFFFFFFF8001FFC23
:10089000003FFFFFFFF0001FFC00FFFFFFFFE00035
:1008A0001FF801FFFFFFFF80001FF001FFFFFFFFA8
:1008B00000001FF003FFFFFFFE00001FF003FFFF1B
:1008C000FFFC00001FE007FFFFFFF800001FE0072C
:1008D000FFFFFFF004001FE007FFFFFFC00C001F39
:1008E000E007FFFFFF801C001FC007FFFFFF003C69
:1008F000001FC003FFFFFC007C001FC003FFFFF8C8
:1009000000FC001FC001FFFFE001FC001FC000FF52
:10091000FFC003FC001FE0003FFF0007FC001FE0DA
:100920000007F80007FC001FE0000000000FFC00BB
:100930001FE0000000001FFC001FF0000000003F4F
:10094000FC001FF0000000007FFC001FF000000012
:1009500000FFFC001FF800000001FFFC001FF80072
:10096000000003FFFC001FFC00000007FFFC001F4D
:10097000FE0000000FFFF8001FFF0000003FFFF027
:10098000001FFF8000007FFFC0001FFFE00001FF8D
:10099000FE00001FFFF80007FFFE00001FFFFF0022
:1009A0001FFFFE00001FFFFFFFFFFFFE00001FFFF5
:1009B000FFFFFFFFFE003FFFFFFFFFFFFFFF7FFF87
:1009C000FFFFFFFFFFFFFFFFFFFFFFFFFFFFFFFF37
:1009D000FFFFFFFFFFFFFFFFFFFFFFFFFFFFFFFF27
:1009E000FFFFFFFFFFFFFFFFFFFFFFFFFFFFFFFF17
:1009F000FFFFFFFFFFFFFFFFFFFFFFFFFFFFFFFF07
:100A0000FFFFFFFFFFFFFFFFFFFFFFFFFFFFFFFFF6
:100A1000FFFFFFFFFFFFFFFFFFFFFFFFFFFFFFFFE6
:100A2000FFFFFFFFFFFFFFFFFFFFFFFFFFFFFFFFD6
:100A3000FFFFFFFFFFFFFFFFFFFFFFFFFFFFFFFFC6
:100A4000FFFFFFFFFFFFF3FFFFFFFFFFFFFFFF8041
:100A5000FFFFFFFFFFFFFFFF003FFFFFFFFFFFFF65
:100A6000FF003FFFFE1FFFFFFFFE001FFFF80FFF0D
:100A7000FFFFFE000FFFF00FFFFFFFFE000FFFC0A4
:100A80000FFFFFFFFE0007FF8007FFFFFFFE0007CD
:100A9000FF001FFFFFFFFE0007FE003FFFFFFFFEFE
:100AA0000007FC00FFFFFFFFFF0003FC01FFFFFF4B
:100AB000FFFF8003F801FFFFCFFFFFC003F803FF34
:100AC000FF83FFFFE003F003FFFF01FFFFF803F0E8
:100AD00003FFFE01FFFFFC03F003FFFC03FFFFFC2D
:100AE00003E003FFF803FFFFFE03E003FFF003FF53
:100AF000FFFE03E003FFC003FFFFFE03E001FF80F2
:100B000001FFFFFE03E0007E0001FFFFFE07E000A3
:100B1000000000FFFFFC07E0000000007FFFFC0773
:100B2000E0000000003FFFF007E0000000000FFFC2
:100B3000C00FF00000000000FC000FF000000000FB
:100B40000000000FF0000000000000001FF800008F
:100B500008000000001FF8000018000000003FFC23
:100B6000000038000000003FFE00007C0000000094
:100B70007FFF0000FC00000000FFFF8003FE00007C
:100B80000001FFFFE00FFF00000003FFFFFFFFFF7A
:100B900080000007FFFFFFFFFFC000000FFFFFFF07
:100BA000FFFFE000003FFFFFFFFFFFF80000FFFF37
:100BB000FFFFFFFFFF0007FFFFFFFFFFFFFFFDFF3E
:100BC000FFFFFFFFFFFFFFFFFFFFFFFFFFFFFFFF35
:100BD000FFFFFFFFFFFFFFFFFFFFFFFFFFFFFFFF25
:100BE000FFFFFFFFFFFFFFFFFFFFFFFFFFFFFFFF15
:100BF000FFFFFFFFFFFFFFFFFFFFFFFFFFFFFFFF05
:100C0000FFFFFFFFFFFFFFFFFFFFFFFFFFFFFFFFF4
:100C1000FFFFFFFFFFFFFFFFFFFFFFFFFFFFFFFFE4
:100C2000FFFFFFFFFFFFFFFFFFFFF80FFFFFFFFFCB
:100C3000FFFFFFF007FFFFFFFFFFFFFFC007FFFF02
:100C4000FFFFFFFFFF8007FFFFFFFFFFFFFE000723
:100C5000FFFFFFFFFFFFFC0007FFFFFFFFFFFFF0AD
:100C60000007FFFFFFFFFFFFE00007FFFFFFFFFFA1
:100C7000FF800007FFFFFFFFFFFF000007FFFFFFF0
:100C8000FFFFFC002007FFFFFFFFFFF8006007FFEA
:100C9000FFFFFFFFE001E007FFFFFFFFFFC003E0F2
:100CA00007FFFFFFFFFF000FE007FFFFFFFFFE0052
:100CB0001FE007FFFFFFFFF8007FE007FFFFFFFFD8
:100CC000F000FFE007FFFFFFFFC003FFE007FFFFAB
:100CD000FFFF800FFFE007FFFFFFFE001FFFE007A1
:100CE000FFFFFFFC003FFFE007FFFFFFF0000000F9
:100CF00000000007FFE000000000000007FF800088
:100D0000000000000007FF0000000000000007FCDA
:100D10000000000000000007F800000000000000D4
:100D200007E00000000000000007C0000000000015
:100D3000000007C00000000000000007C000000025
:100D40000000000007C00000000000000007C00015
:100D500000000000000007C00000000000000007C5
:100D6000C00000000000000007FFFFFFFFFFE007DA
:100D7000FFFFFFFFFFFFFFE007FFFFFFFFFFFFFF9A
:100D8000E007FFFFFFFFFFFFFFE007FFFFFFFFFFA1
:100D9000FFFFE007FFFFFFFFFFFFFFE007FFFFFF91
:100DA000FFFFFFFFE007FFFFFFFFFFFFFFE007FF81
:100DB000FFFFFFFFFFFFF00FFFFFFFFFFFFFFFFF42
:100DC000FFFFFFFFFFFFFFFFFFFFFFFFFFFFFFFF33
:100DD000FFFFFFFFFFFFFFFFFFFFFFFFFFFFFFFF23
:100DE000FFFFFFFFFFFFFFFFFFFFFFFFFFFFFFFF13
:100DF000FFFFFFFFFFFFFFFFFFFFFFFFFFFFFFFF03
:100E0000FFFFFFFFFFFFFFFFFFFFFFFFFFFFFFFFF2
:100E1000FFFFFFFFFFFFFFFFFFFFFFFFFFFFFFFFE2
:100E2000FFFFFFFFFFFFFFFFFFFFFFFFFFFFFFFFD2
:100E3000FFFFFFFFFFFFF3FFFFFFFFFFFFFFFF804D
:100E40007FFFFFFFFFFFFFFF003FFFFFFFFFFFFFF1
:100E5000FF001FFFFFFFFE03FFFE000FF800000072
:100E600001FFFE000FF800000000FFFE0007F80081
:100E7000000000FFFE0007F8000000007FFE0007F2
:100E8000F800000000FFFF0003F800000000FFFF73
:100E90000003F8000FC001FFFF8003F8007FC001CE
:100EA000FFFFC003F8007FC001FFFFE003F8007FF1
:100EB0008001FFFFF803F8007F8001FFFFFC03F8CB
:100EC000007F8001FFFFFE03F8007F8001FFFFFF2E
:100ED00003F8007F8001FFFFFF03F8007F8001FF20
:100EE000FFFF03F8007F8001FFFFFF03F8007FC0D2
:100EF00000FFFFFE07F8007FC0007FFFFE07F8003D
:100F00007FC0003FFFFC07F8007FC0001FFFF8070D
:100F1000F8007FC00007FFE00FF8007FE00000FE50
:100F2000000FF8007FE0000000000FF8007FE000F5
:100F30000000001FF8007FF0000000001FF0007F9D
:100F4000F0000000003FE0007FF8000000003FE0FC
:100F5000007FF8000000007FE0007FFC0000000040
:100F6000FFE0007FFE00000001FFE001FFFF000046
:100F70000003FFE0FFFFFF80000007FFFFFFFFFF10
:100F8000C000000FFFFFFFFFFFF000003FFFFFFF6B
:100F9000FFFFFC0000FFFFFFFFFFFFFF8007FFFFD9
:100FA000FFFFFFFFFFFFFFFFFFFFFFFFFFFFFFFF51
:100FB000FFFFFFFFFFFFFFFFFFFFFFFFFFFFFFFF41
:100FC000FFFFFFFFFFFFFFFFFFFFFFFFFFFFFFFF31
:100FD000FFFFFFFFFFFFFFFFFFFFFFFFFFFFFFFF21
:100FE000FFFFFFFFFFFFFFFFFFFFFFFFFFFFFFFF11
:100FF000FFFFFFFFFFFFFFFFFFFFFFFFFFFFFFFF01
:10100000FFFFFFFFFFFFFFFFFFFFFFFFFFFFFFFFF0
:10101000FFFFFFFFFFFFFFFFFFF800FFFFFFFFFFE6
:10102000FFFF000007FFFFFFFFFFF0000000FFFFD2
:10103000FFFFFFC00000003FFFFFFFFF00000000B8
:101040000FFFFFFFFC0000000007FFFFFFF00000A4
:10105000000003FFFFFFC00000000001FFFFFF8052
:101060000000000000FFFFFF0000000000007FFF05
:10107000FE0000000000003FFFFC00000000000038
:101080003FFFF80000000000001FFFF0000000001C
:1010900000001FFFE00000000000000FFFC0000084
:1010A000000000000FFFC0000007FFFF000FFF80DF
:1010B00000000FFFFFE007FF0000381FFFFFF807E9
:1010C000FF0001F01FFFFFFC07FE0007F01FFFFFFE
:1010D000FE07FE000FF03FFFFFFE07FC003FE03F72
:1010E000FFFFFE07FC007FE03FFFFFFE07F800FF69
:1010F000E01FFFFFFE07F801FFE01FFFFFFC07F8FE
:1011000003FFE00FFFFFF807F007FFE003FFFFE03A
:1011100007F007FFE0000E38000FE00FFFE00000CF
:1011200000000FE01FFFF0000000000FE01FFFF0C5
:10113000000000000FE03FFFF0000000001FC03F74
:10114000FFF8000000001FC07FFFF8000000003F14
:10115000C07FFFFC000000007FE0FFFFFC000000FC
:10116000007FF0FFFFFE00000000FFFFFFFFFF0019
:10117000000001FFFFFFFFFF80000003FFFFFFFFF4
:10118000FFC000000FFFFFFFFFFFF000003FFFFF69
:10119000FFFFFFFE0000FFFFFFFFFFFFFFC00FFF8D
:1011A000FFFFFFFFFFFFFFFFFFFFFFFFFFFFFFFF4F
:1011B000FFFFFFFFFFFFFFFFFFFFFFFFFFFFFFFF3F
:1011C000FFFFFFFFFFFFFFFFFFFFFFFFFFFFFFFF2F
:1011D000FFFFFFFFFFFFFFFFFFFFFFFFFFFFFFFF1F
:1011E000FFFFFFFFFFFFFFFFFFFFFFFFFFFFFFFF0F
:1011F000FFFFFFFFFFFFFFFFFFFFFFFFFFFFFFFFFF
:10120000FFFFFFFFFFFFFFFFFFFFFFFFFFFFFFE10C
:10121000FFFFFFFFFFFFFF0000FFFFFFFFFFFFF8E3
:101220000000FFFFFFFFFFFFF80000FFFFFFFFFFD1
:10123000FFF80000FFFFFFFFFFFFF80000FFFFFFC8
:10124000FFFFFFF80001FFFFFFFFFFFFF8000FFFA8
:10125000FFFFFFFFFFF8001FFFFFFFFFFFFFF8008A
:101260003FFFFFFFFFFFF7F8003FFFFFFFFFFF8398
:10127000F8003FFFFFFFFFFE03F8003FFFFFFFFF07
:10128000F803F8003FFFFFFFFFE003F8003FFFFF18
:10129000FFFF0003F8003FFFFFFFFC0003F8003FE3
:1012A000FFFFFFF00003F8003FFFFFFF800003F89F
:1012B000003FFFFFFE000003F8003FFFFFF80000C3
:1012C00003F8003FFFFFC0000003F8003FFFFF00EE
:1012D000000003F8003FFFFC0000000FF8003FFF94
:1012E000F00000007FF8003FFF80000001FFF800E1
:1012F0003FFE0000000FFFF8003FF80000007FFFF6
:10130000F8003FC0000001FFFFF8003F0000000FA1
:10131000FFFFF8003C0000003FFFFFF80030000036
:1013200001FFFFFFF8000000000FFFFFFFF80000C3
:1013300000003FFFFFFFF800000001FFFFFFFFF884
:1013400000000007FFFFFFFFF80000003FFFFFFF66
:10135000FFF8000001FFFFFFFFFFF8000007FFFF9D
:10136000FFFFFFF800003FFFFFFFFFFFF80001FF56
:10137000FFFFFFFFFFF80007FFFFFFFFFFFFF80081
:101380003FFFFFFFFFFFFFF800FFFFFFFFFFFFFF33
:10139000F807FFFFFFFFFFFFFFFC3FFFFFFFFFFF1F
:1013A000FFFFFFFFFFFFFFFFFFFFFFFFFFFFFFFF4D
:1013B000FFFFFFFFFFFFFFFFFFFFFFFFFFFFFFFF3D
:1013C000FFFFFFFFFFFFFFFFFFFFFFFFFFFFFFFF2D
:1013D000FFFFFFFFFFFFFFFFFFFFFFFFFFFFFFFF1D
:1013E000FFFFFFFFFFFFFFFFFFFFFFFFFFFFFFFF0D
:1013F000FFFFFFFFFFFFFFFFFFFFFFFFFFFFFFFFFD
:10140000FFFFFFFFFFFFFFFFFFFFFFFFFFFFFFFFEC
:10141000FFFFFFFF87FFFFFFFFFFFFFFFC007FFFD6
:10142000FFFE003FFFF0001FFFFFF0000FFFC000B6
:1014300007FFFFE00003FF800003FFFF800000FFC5
:10144000000001FFFF0000007F000000FFFE000021
:10145000003E0000007FFC0000001C0000003FF880
:10146000000000180000003FF80000000800000025
:101470001FF0000000000000001FF000000000004E
:1014800000001FF0000000000000000FE007E00077
:101490000007FFC00FE01FF800001FFFF00FE03F44
:1014A000FC00003FFFF807C07FFE00007FFFFC0745
:1014B000C07FFF00007FFFFC07C0FFFF80003FFFF1
:1014C000FE07C0FFFF80003FFFFE07C0FFFFC00018
:1014D0001FFFFE07C0FFFFE0000FFFFE07C07FFFFA
:1014E000E0000FFFFE07C07FFFF00007FFFE07C010
:1014F0007FFFF00003FFFE07E03FFFF00003FFFC6B
:1015000007E01FFFC00001FFFC0FE007FF800000A5
:10151000FFF80FE000780000007FF00FF0000000FF
:1015200000001FC01FF0000000000000001FF000BE
:101530000000000000001FF8000001800000003FD4
:10154000F8000001C00000003FFC000003E00000C4
:10155000007FFE000007F0000000FFFF00000FF01A
:10156000000001FFFF80001FF8000003FFFFC00024
:101570003FFE000007FFFFF0007FFF00000FFFFFAE
:10158000FE01FFFF80003FFFFFFFFFFFFFF001FFB5
:10159000FFFFFFFFFFFFFE1FFFFFFFFFFFFFFFFF3C
:1015A000FFFFFFFFFFFFFFFFFFFFFFFFFFFFFFFF4B
:1015B000FFFFFFFFFFFFFFFFFFFFFFFFFFFFFFFF3B
:1015C000FFFFFFFFFFFFFFFFFFFFFFFFFFFFFFFF2B
:1015D000FFFFFFFFFFFFFFFFFFFFFFFFFFFFFFFF1B
:1015E000FFFFFFFFFFFFFFFFFFFFFFFFFFFFFFFF0B
:1015F000FFFFFFFFFFFFFFFFFFFFFFFFFFFFFFC03A
:1016000001FFFFFFFFFFFFFE00003FFFFFFFFFFFA7
:10161000F800000FFFFFFFFFFFE0000007FFFFFFE4
:10162000FFFFC0000003FFFFFFFFFF80000000FF7F
:10163000FFFFBFFF00000000FFFFFF1FFE000000D4
:10164000007FFFFE0FFC000000003FFFFE07F800D8
:101650000000003FFFFC07F8000000001FFFFC0730
:10166000F0000000001FFFF80FF0000000000FFF67
:10167000F80FF0000000000FFFF00FE00000000086
:101680000FFFF00FE001FFFE000FFFE01FE00FFF74
:10169000FFC00FFFC01FC03FFFFFF00FFF801FC044
:1016A0007FFFFFF807FF003FC0FFFFFFF80FFE00BE
:1016B0003FC0FFFFFFF80FFC007FC0FFFFFFF80FE8
:1016C000F8007FC0FFFFFFF80FE000FFC07FFFFFC3
:1016D000F80F8000FFC07FFFFFF01E0001FFC03F3A
:1016E000FFFFF0180001FFE00FFFFFE0000003FF25
:1016F000E001FFFFE0000007FFE000000000000045
:1017000007FFF00000000000000FFFF000000000E5
:1017100000001FFFF00000000000003FFFF8000085
:10172000000000007FFFFC000000000000FFFFFC45
:10173000000000000001FFFFFE000000000003FFAA
:10174000FFFF000000000007FFFFFF800000000017
:101750001FFFFFFFC0000000003FFFFFFFF0000081
:101760000000FFFFFFFFFC00000003FFFFFFFFFF83
:101770000000001FFFFFFFFFFFE00000FFFFFFFF73
:10178000FFFFFE001FFFFFFFFFFFFFFFFFFFFFFF49
:10179000FFFFFFFFFFFFFFFFFFFFFFFFFFFFFFFF59
:1017A000FFFFFFFFFFFFFFFFFFFFFFFFFFFFFFFF49
:1017B000FFFFFFFFFFFFFFFFFFFFFFFFFFFFFF0038
:1017C00011241FBECFE5D8E0DEBFCDBF13E0A0E6F9
:1017D000B0E0E0EBFFE202C005900D92A039B10746
:1017E000D9F715E0A0E9B3E001C01D92AF3EB10703
:1017F000E1F70E9446140C94D6170C940000A19AAD
:1018000087E893E00197F1F7A19887EA8A95F1F7C5
:10181000999B03C01092DF0503C081E08093DF0530
:1018200089E093E00197F1F78091DF05089520E0CA
:1018300080E054E049E038E9A19A952F9A95F1F7B4
:10184000A198942F9A95F1F7869599998068932F8E
:101850009A95F1F72F5F283079F7089520E034E06A
:1018600048E9A19A932F9A95F1F780FF02C0A198B9
:1018700001C0A19A942F9A95F1F7A198932F9A9568
:10188000F1F72F5F283011F08695EBCF08950E9475
:10189000FF0B8CEC0E942E0C84E40E942E0C80E145
:1018A00097E228EB30E0F9013197F1F70197D9F78A
:1018B0000E94FF0B8CEC0E942E0C8EEB0E942E0CD3
:1018C0000E94170C8093DD050E94170C8093DE05A3
:1018D00083FF12C0982F90959093DE058FB78E6F7F
:1018E0008FBF8091DD0581958093DD050FB600FEE9
:1018F00003C09F5F9093DE05E091DD054E2F50E021
:101900004F7050702091DE0530E084E0220F331FCD
:101910008A95E1F720773070E295EF70F0E081E78B
:1019200092E0BC01469FC001479F900D569F900DCD
:10193000112468EE73E00E94A316C9018E2B9F2B21
:101940000E9431120895BF92CF92DF92EF92FF92E0
:101950000F931F93CF93DF93282F6B01B42E90E04A
:1019600087709070892B11F0287F285FF22EF694F3
:10197000F694F69420E030E040E058E4B09B09C0D3
:10198000CA010197F1F72F5F3F4F81E020393807F7
:10199000A9F7C498C29884E20E94B30FC29A00E0EB
:1019A00010E0EF2CFF2409C08B2D0E94B30F21966D
:1019B000CE15DF05CCF30F5F1F4F0C151D0518F476
:1019C000C0E0D0E0F5CFC49ADF91CF911F910F9185
:1019D000FF90EF90DF90CF90BF9008950F931F93EB
:1019E000062F20E030E040E058E4B09B09C0FA0147
:1019F0003197F1F72F5F3F4F91E020393907A9F771
:101A0000C498C2981CE0912F9A95F1F70E94B30FE9
:101A1000C29A812F8A95F1F7802F0E94B30F1A95F1
:101A2000F1F7C49A1F910F9108951F93C498C2981B
:101A30001CE0912F9A95F1F70E94B30F1A95F1F7D8
:101A4000C49A1F91089582E264E00E94EE0C80E245
:101A50000E94150D8FEF0E94150D089582E260EC33
:101A60000E94EE0C80E20E94150D0895DF92EF9225
:101A7000FF920F931F93CF93DF938C01E62EC498B0
:101A8000C2988CE0F82E8F2D8A95F1F7F8018081AD
:101A90000E94B30FC29AFA94F1F7D02EE801FF2406
:101AA0000894E108F10803C088810E94B30F9E01E9
:101AB0002D19822F90E021968E159F05ACF3C49AC4
:101AC000DF91CF911F910F91FF90EF90DF900895DC
:101AD000DF93CF9300D000D00F92CDB7DEB79EE456
:101AE00099838A838FE48B836C834D83CE01019627
:101AF00062E00E94360DCE01039663E00E94360D2F
:101B00000F900F900F900F900F90CF91DF9108954D
:101B1000DF92EF92FF920F931F93DF93CF93CDB796
:101B2000DEB728970FB6F894DEBF0FBECDBFD82E14
:101B3000142FF22E84E48983DA826B8385E48C830C
:101B40004D832E830F83E886CE01019663E00E94C9
:101B5000360DCE01049665E00E94360D8D2D612F65
:101B60004F2D0E94680D28960FB6F894DEBF0FBE69
:101B7000CDBFCF91DF911F910F91FF90EF90DF903C
:101B80000895DF93CF93CDB7DEB728970FB6F894BB
:101B9000DEBF0FBECDBFC19888EE93E028EB30E0EA
:101BA000F9013197F1F70197D9F7C19A88EE93E0DF
:101BB00028EB30E0F9013197F1F70197D9F780E68A
:101BC00090E064E00E94360D84E690E064E00E94BC
:101BD000360D80E790E062E00E94360D84E790E0E9
:101BE00062E00E94360D86E790E062E00E94360DCA
:101BF0008AE790E062E00E94360D84E489831A82CD
:101C00008FE08B8385E48C8389EF8D831E821F8216
:101C10001886CE01019663E00E94360DCE0104962F
:101C200065E00E94360D80E069EF40E00E94680D9B
:101C300028960FB6F894DEBF0FBECDBFCF91DF91CF
:101C400008950E94C10D8AE990E06EE10E94360D70
:101C50000E942E0D08950E94C10D8CE790E06EE168
:101C60000E94360D0E942E0D08956F927F928F92E2
:101C70009F92AF92BF92CF92DF92EF92FF920F931B
:101C80001F93CF93DF93282F3B01042FF52E90E075
:101C900087709070892B11F0287F285F122F16957E
:101CA0001695169520E030E040E058E4B09B09C05E
:101CB000CA010197F1F72F5F3F4F81E020393807C4
:101CC000A9F7C498C29884E20E94B30FC29A812EE9
:101CD0009924802F9F2D9C01790100E010E0540190
:101CE0000DC0F60181916F010E94B30F2196CA15B4
:101CF000DB05BCF30F5F1F4FE80CF91C0615170539
:101D000020F46701C0E0D0E0F2CFC49ADF91CF9118
:101D10001F910F91FF90EF90DF90CF90BF90AF9009
:101D20009F908F907F906F9008952F923F924F9247
:101D30005F926F927F928F929F92AF92BF92CF925B
:101D4000DF92EF92FF920F931F93DF93CF93CDB764
:101D5000DEB761970FB6F894DEBF0FBECDBF982FE8
:101D6000B62E19012A0137014801D98AC88A8A2D5D
:101D7000AA2009F048C0292F2695269526952B875D
:101D8000A62EA694A694A694EA863327212F102F78
:101D90000F2D0987122DFF24E52CD42CC32CFC2CED
:101DA0008B856A2D462D202F022DEC2C9F870E94BB
:101DB000880D9F85B91A6301C218D3080894C11C05
:101DC000D11C8B2DB601E889F98940810E94A30CB2
:101DD0000E94230D80ED97E028EB30E0F901319768
:101DE000F1F70197D9F78B856A2D4A852985012F4F
:101DF000EF2C0E94880D8B2DB601E889F98940816E
:101E00000E94A30C70C0F92FF695F695F695FC8705
:101E1000262F2695269526952D873327212F102F9F
:101E20000F2DFF24E52CD42CC32CB91ABE865301E8
:101E3000A218B308813041F568860F832E82CD82C7
:101E40008F2F6D85462D202F022DEC2C0E94880DA2
:101E500065010894C11CD11C8E85B6014889598939
:101E60000E94350E0E94230D88EB9BE028EB30E0AA
:101E7000F9013197F1F70197D9F78C856D85488580
:101E80002F810E81ED8027C06C820B832A82C9824C
:101E90008C856D85462D202F022DEC2C0E94880DFF
:101EA00065010894C11CD11C8E85B60148895989E9
:101EB0000E94350E0E94230D80ED97E028EB30E064
:101EC000F9013197F1F70197D9F78C856D854C8130
:101ED0002B810A81E9800E94880D8E85B601488990
:101EE00059890E94350E61960FB6F894DEBF0FBE79
:101EF000CDBFCF91DF911F910F91FF90EF90DF90B9
:101F0000CF90BF90AF909F908F907F906F905F9099
:101F10004F903F902F9008951F93CF93DF93EC0144
:101F2000162F80E069EF40E00E94680D112339F41C
:101F300080E86AEF70E04FEF0E94A30C06C080E8D3
:101F40006AEF70E0AE010E94350E82E264EC0E94FE
:101F5000EE0C80E20E94150D8FEF0E94150DDF91AF
:101F6000CF911F91089520E03CE0C79887FF02C001
:101F7000C59A01C0C598932F9A95F1F7C79A932FE8
:101F80009A95F1F72F5F283011F0880FEECF089562
:101F9000CF92DF92EF92FF920F931F93CF93DF9335
:101FA0006C017B01009709F494C06115710509F477
:101FB00090C0FB018081882309F48BC0F6018081E9
:101FC000882309F486C0FB0120E030E081912F5F77
:101FD0003F4F8823D9F7C901880F991F0E94CA165D
:101FE000AC018FEF9FEFFA01918380832FEF3FEFDA
:101FF00060E070E033C0FFEF2F3F3F0731F0F701A3
:10200000E20FF31F8081981711F56F5F7F4F2F5FED
:102010003F4FF701E60FF71FD701A20FB31F9081C3
:102020008C91DB01AA0FBB1F981729F0A40FB51FD5
:102030002D933C9313C0A40FB51FF901EE0FFF1FA2
:10204000E40FF51F808191818D939C9307C0F90166
:10205000EE0FFF1FE40FF51F20813181F701E60F1E
:10206000F71F9081992339F600E010E080E090E0BE
:10207000C0E0D0E01AC02E1721F40196FE0131967F
:1020800013C0FE01EE0FFF1FE40FF51F0190F0815A
:10209000E02D0C0F1D1F0E1B1F0B2FEFEF3FF20744
:1020A00019F40196E0E0F0E0EF01F601E80FF91F06
:1020B0002081222331F0F701EC0FFD1FE081EE2398
:1020C000D1F6CA010E947717CE0DDF1D88818823C3
:1020D00011F00FEF1FEFC801DF91CF911F910F910A
:1020E000FF90EF90DF90CF90089588E08ABB1BBAF5
:1020F00019BA86EB87BB18BA16BA11BA12BA10BA57
:102100008CE184BB15BA13BA089510BC83E089B979
:1021100088E98AB986E880BD0895582F282F392F7D
:10212000F90104C05D9BFECF81918CB98E2F851B78
:102130008617C0F308951F920F920FB60F921124C5
:102140008F939F938FE593E79DBD8CBD8091D203C4
:102150008F5F8093D2039F918F910F900FBE0F904E
:102160001F9018951F920F920FB60F9211248F9304
:102170009F93EF93FF9387E085BD89B7806489BF04
:1021800014BC9CB18091D003E82FF0E0E057FC4FE5
:1021900090838F5F8093D0038091D003803410F0C0
:1021A0001092D003FF91EF919F918F910F900FBEEE
:1021B0000F901F9018951F920F920FB60F92112437
:1021C0008F9381E08093D10315BC89B7807889BF54
:1021D0008F910F900FBE0F901F9018954091D003D4
:1021E00020E933E0C90160E070E050E00E94CF17C1
:1021F0001092D0038091D0038093D10308958091F1
:10220000D1038823E1F30E94EE1008958091D10359
:102210008823E1F380E993E068EB70E00E94C80F47
:102220008F5F9F4F19F40E94EE10F0CF0E94EE10C6
:1022300008950F931F930EE411E0F8010190002020
:10224000E9F73197E01BF10BC8016E2F0E948D104A
:102250000E94FF10055D1F4FF80101900020E9F773
:102260003197E01BF10BC8016E2F0E948D100E9468
:10227000FF10A4EAB1E0FD0101900020E9F73197D9
:10228000EA1BFB0BCD016E2F0E948D100E940611E0
:102290001F910F910895CF92DF92EF92FF920F93CB
:1022A0001F93CF93DF930E94EE10CFECD1E0FE019D
:1022B00001900020E9F73197EC1BFD0BCE016E2F4A
:1022C0000E948D108EB585608EBD89B7846089BFF0
:1022D0008FE593E79DBD8CBD95E2E92E92E0F92E46
:1022E00008EB10E08BE2C82ED12CCC0EDD1E8091C5
:1022F000D103882309F485C080E993E064EC70E0A1
:102300000E94C80F8F5F9F4F09F1F70101900020D5
:10231000E9F7E652F24085E292E06E2F0E948D10BE
:102320000E94FF1080EA9FE0F8013197F1F70197D2
:10233000D9F7FE0101900020E9F73197EC1BFD0B66
:102340008FEC91E06E2F0E948D1059C08091D003C8
:10235000893109F054C0AEECB5E0E2E9F3E08FE07A
:1023600001900D928150E1F780E38093CD058DECD3
:1023700095E063EE75E040E10E949715A5E4B1E0B9
:10238000E3EEF5E088E001900D928150E1F70E94C4
:10239000EE1081E08093CB05AAEFB1E0FD01019042
:1023A0000020E9F7EB5FF140CD016E2F0E948D1008
:1023B00080ED97E028EB30E0F9013197F1F70197D4
:1023C000D9F782E491E06CE00E948D1081E0809367
:1023D000CC0580ED97E028EB30E0F9013197F1F77B
:1023E0000197D9F71EBC89B78B7F89BFDF91CF9149
:1023F0001F910F91FF90EF90DF90CF9008950E9472
:10240000EE108091D203853008F471CFF60101906F
:102410000020E9F7EB5FF1408AEF91E06E2F0E9418
:102420008D1088EE93E0F8013197F1F70197D9F715
:10243000F70101900020E9F7E652F24085E292E0D0
:102440006E2F0E948D100E94FF1080EA9FE0F8011D
:102450003197F1F70197D9F70E9419111092D20321
:1024600046CF8F929F92AF92BF92CF92DF92EF9220
:10247000FF920F931F93CF93DF934C01B62E6AE028
:1024800070E00E94B716CB016AE070E00E94B716B8
:102490009C0197FF03C0309521953F4F21153105D1
:1024A00009F458C088EF91E0289FA001299F500DA2
:1024B000389F500D11249A0128503E4FFA01E15FD8
:1024C000FB4FC3EDD3E0DE0105C084918D934F5FD8
:1024D0005F4F319642175307C0F388E26FE62AEA4E
:1024E00030E040E050E0A1EEEA2EF12C012D112D5C
:1024F000F3EDCF2EF3E0DF2EAA24A3940E94950ED5
:1025000097FC16C08FEF899394E0CB31D907D9F7A8
:1025100080E467E522EE30E040E050E0E9EFEE2EA7
:10252000F12C012D112D73EDC72E73E0D72E0FC0A6
:1025300080E467E522EE30E040E050E099EFE92EDC
:10254000F12C012D112DBAEFCB2EB0E0DB2EAA24F9
:10255000A39446C0C3EDD3E0FE018FEF819395E0D5
:10256000EB3CF907D9F788E26FE62AEA30E040E071
:1025700050E0A1EEEA2EF12C012D112DF3EDCF2E1E
:10258000F3E0DF2EAA24A3940E94950E8FEF899387
:10259000E4E0CB31DE07D9F780E467E522EE30E0F6
:1025A00040E050E0E9EFEE2EF12C012D112D73EDFE
:1025B000C72E73E0D72EAA24A3940E94950E97FEEF
:1025C00011C080E467E521EB30E040E050E098EC9A
:1025D000E92EF12C012D112DBAEFCB2EB0E0DB2E20
:1025E0000E94950EC40197FE03C0909581959F4F60
:1025F0006AE070E00E94B71628EF31E0829FB001D8
:10260000839F700D929F700D1124DB01A850BE4F67
:10261000AB01415F5B4F20E030E00AC0FA018491DA
:10262000F901ED52FC4F80832F5F3F4F4F5F5F4FAB
:10263000C901860F971F8A179B0780F388E26FE610
:1026400027E730E040E050E0AEEAEA2EF12C012D21
:10265000112DF3EDCF2EF3E0DF2EAA24A3940E94D8
:10266000950E8B2D6AE00E949716292F30E088EF97
:1026700091E0289FB001299F700D389F700D1124A3
:10268000DB01A850BE4FAB01415F5B4F20E030E063
:102690000AC0FA018491F901ED52FC4F80832F5F4B
:1026A0003F4F4F5F5F4FC901860F971F8A179B07E8
:1026B00080F388E26FE62DE230E040E050E0E4E6AF
:1026C000EE2EF12C012D112D73EDC72E73E0D72EB8
:1026D000AA24A3940E94950EDF91CF911F910F9190
:1026E000FF90EF90DF90CF90BF90AF909F908F9032
:1026F0000895AF92CF92DF92EF92FF920F931F93C4
:10270000DF93CF9300D0CDB7DEB70E942B0E88E8C1
:1027100093E128EB30E0F9013197F1F70197D9F710
:102720008FEF90E09A8389836E010894C11CD11CBD
:10273000C60160E00E948C0F80E49CE928EB30E049
:10274000F9013197F1F70197D9F70E94210E80E046
:1027500069EF20E030E040E050E07FE7E72EF12C29
:10276000012D112DAA24A3940E94950E88E59BE1CA
:1027700028EB30E0F9013197F1F70197D9F780E0C4
:1027800090E0FC01EC5AFF4FE491DC01AD52BC4FEC
:10279000EC930196803F9105A1F780E46FE620E07D
:1027A00030E040E050E097E2E92EF12C012D112DB0
:1027B000B3EDCB2EB3E0DB2EAA24A3940E94950E9A
:1027C00080E090E0FC01EC5BFE4FE491DC01AD5257
:1027D000BC4FEC93019621E08F39920799F780E086
:1027E00067E220E030E040E050E0A2E5EA2EF12C84
:1027F000012D112DF3EDCF2EF3E0DF2EAA24A394AB
:102800000E94950E80E090E0FC01ED51FD4FE491B7
:10281000DC01AD52BC4FEC93019621E08C32920763
:1028200099F780E067E22EEB30E040E050E0E9EF1E
:10283000EE2EF12C012D112D73EDC72E73E0D72E46
:10284000AA24A3940E94950E88E56FE626E630E060
:1028500040E050E091E7E92EF12C012D112DB3ED70
:10286000CB2EB0E0DB2E0E94950E80E090E060E081
:102870000E9431120F900F90CF91DF911F910F9115
:10288000FF90EF90DF90CF90AF9008951F93CF937C
:10289000DF93F8940E9475108BB398E089278BBB67
:1028A00080ED97E028EB30E0F9013197F1F70197DF
:1028B000D9F78BB398E089278BBB80ED97E028EBA5
:1028C00030E0F9013197F1F70197D9F78BB398E030
:1028D00089278BBB80ED97E028EB30E0F901319739
:1028E000F1F70197D9F78BB398E089278BBB88E97B
:1028F0009AE328EB30E0F9013197F1F70197D9F726
:102900000E94791310BC83E089B988E98AB986E806
:1029100080BD7894AA9A80EF95E528EB30E0F90124
:102920003197F1F70197D9F7AA980E940611DB9A1F
:102930000E9419110E944B11C8EBD0E011E0809168
:10294000D103882329F180E993E064EC70E00E94D0
:10295000C80F8F5F9F4F79F08CED95E0FE013197A6
:10296000F1F70197D9F782E491E06CE00E948D10B5
:102970001093CC050BC080E993E06CEC70E00E94F2
:10298000C80F8F5F9F4F11F01092CC050E94EE1080
:102990000E94470CD4CFCF93DF93EC019B01E881D9
:1029A000EE3219F480E090E00BC089818E3219F488
:1029B00081E090E005C08A818E32C1F482E090E02F
:1029C0008230910549F08330910581F0019759F5E6
:1029D000F9011082E8811DC0F0E0EE0FFF1FE657FD
:1029E000FD4F8081F9018083E98113C0A981B0E0A6
:1029F000AA0FBB1FA657BD4FF0E0EE0FFF1FE65713
:102A0000FD4F90819295907F8C91892BF901808365
:102A1000EA81F0E0EE0FFF1FE657FD4F80818295BF
:102A2000807FF90104C08FEFF901808380EF8183FB
:102A3000DF91CF910895CF93DF93EC019B01E88163
:102A4000EE3209F46EC089818E3219F481E090E093
:102A50000CC08A818E3219F482E090E006C08B812E
:102A60008E3209F059C083E090E082309105D9F0B0
:102A70008330910559F1019709F04EC0F901108298
:102A8000AA81B0E0AA0FBB1FA657BD4FE881F0E0B6
:102A9000EE0FFF1FE657FD4F90819295907F8C912E
:102AA000892BF9013CC0F0E0EE0FFF1FE657FD4F08
:102AB0008081F9018083E981F0E0EE0FFF1FE65786
:102AC000FD4F90819295907FEB811CC0A981B0E071
:102AD000AA0FBB1FA657BD4FF0E0EE0FFF1FE65732
:102AE000FD4F90819295907F8C91892BF901808385
:102AF000EA81F0E0EE0FFF1FE657FD4F90819295BF
:102B0000907FEC81F0E0EE0FFF1FE657FD4F8081D4
:102B1000982BF901918308C08FEFF901808381839D
:102B200003C0FB0110821182DF91CF910895CF93F2
:102B3000DF93EC01DB0120E030E050E016C0E881DB
:102B4000F0E0EE0FFF1FE657FD4F90819295907FCA
:102B50009C93E981F0E0EE0FFF1FE657FD4F808167
:102B6000980F9D932E5F3F4F2296241735073CF315
:102B7000DF91CF910895CF93DF93DC01EB0120E04B
:102B800030E0FD01E20FF31F80818E3231F02F5FC4
:102B90003F4F2C303105A9F7C2C02530310509F06F
:102BA00060C0EC91F0E0E05BFD4F808124E6829F05
:102BB000C00111241296EC911297F0E0E05BFD4FFA
:102BC0003081380F1196EC911197F0E0E05BFD4FEA
:102BD00080812AE0829FC0011124380F3883139628
:102BE000EC911397F0E0E05BFD4F90819295907F20
:102BF0001496EC911497F0E0E05BFD4F8081980F04
:102C000099831696EC911697F0E0E05BFD4F90816A
:102C10009295907F1796EC911797F0E0E05BFD4F4F
:102C20008081980F9A831896EC911897F0E0E05BFA
:102C3000FD4F90819295907F1996EC911997F0E055
:102C4000E05BFD4F8081980F9B831A96EC911A9759
:102C5000F0E0E05BFD4F90819295907F1B96EC91A8
:102C600057C02430310509F05AC0EC91F0E0E05B28
:102C7000FD4F20818AE0289F900111241196EC914C
:102C80001197F0E0E05BFD4F8081820F8883129600
:102C9000EC911297F0E0E05BFD4F90819295907F70
:102CA0001396EC911397F0E0E05BFD4F8081980F55
:102CB00099831596EC911597F0E0E05BFD4F9081BC
:102CC0009295907F1696EC911697F0E0E05BFD4FA1
:102CD0008081980F9A831796EC911797F0E0E05B4C
:102CE000FD4F90819295907F1896EC911897F0E0A7
:102CF000E05BFD4F8081980F9B831996EC911997AB
:102D0000F0E0E05BFD4F90819295907F1A96EC91F8
:102D1000F0E0E05BFD4F8081980F9C8305C0188236
:102D200019821A821B821C82DF91CF910895991B10
:102D300079E004C0991F961708F0961B881F7A95B2
:102D4000C9F780950895AA1BBB1B51E107C0AA1FB4
:102D5000BB1FA617B70710F0A61BB70B881F991F3C
:102D60005A95A9F780959095BC01CD01089597FBE0
:102D7000092E07260AD077FD04D0E5DF06D0002013
:102D80001AF4709561957F4F0895F6F790958195A7
:102D90009F4F0895CF93DF93BC018230910510F4CB
:102DA00062E070E0A091ED05B091EE05ED01E0E08C
:102DB000F0E040E050E021C08881998186179707B4
:102DC00069F48A819B81309719F09383828304C0D0
:102DD0009093EE058093ED05FE0134C068177907E6
:102DE00038F44115510519F08417950708F4AC0122
:102DF000FE018A819B819C01E9012097E9F641153A
:102E00005105A9F1CA01861B970B049708F4BA0172
:102E1000E0E0F0E02AC08D919C911197841795070E
:102E2000F9F46417750781F412968D919C911397AC
:102E3000309719F09383828304C09093EE058093BA
:102E4000ED05FD0132964FC0CA01861B970BFD01AF
:102E5000E80FF91F6193719302978D939C9343C080
:102E6000FD01828193819C01D9011097A1F6809187
:102E7000EB059091EC05892B41F480918C039091A6
:102E80008D039093EC058093EB0540918E03509158
:102E90008F034115510541F44DB75EB780918A0308
:102EA00090918B03481B590B2091EB053091EC0559
:102EB00024173507B0F4CA01821B930B86179707B6
:102EC00080F0AB014E5F5F4F8417950750F0420FC3
:102ED000531F5093EC054093EB05F90161937193F7
:102EE00002C0E0E0F0E0CF01DF91CF910895CF93F1
:102EF000DF93009709F450C0EC0122971B821A82DD
:102F0000A091ED05B091EE05109709F140E050E079
:102F1000AC17BD0708F1BB83AA83FE012191319153
:102F2000E20FF31FAE17BF0779F48D919C911197B3
:102F3000280F391F2E5F3F4F3983288312968D91BA
:102F40009C9113979B838A834115510571F4D0930B
:102F5000EE05C093ED0520C012968D919C911397BC
:102F6000AD01009711F0DC01D3CFFA01D383C28306
:102F700021913191E20FF31FCE17DF0769F48881A9
:102F80009981280F391F2E5F3F4FFA01318320832B
:102F90008A819B8193838283DF91CF910895DC01A5
:102FA00001C06D9341505040E0F70895F894FFCF71
:102FB00001F900000CD7D69D218F22F003EA040A04
:102FC0002C55F01F3A1A3B083C331101322255AA06
:102FD00055AA55AA1100000000000000001E1E1E88
:102FE0001E1E1E1E1E010000000032180000000000
:102FF00000000000000000000000000F01000000C1
:1030000000000000000000004153545F504F57453E
:10301000524F4E00434F4E4E45435400434C4F5386
:10302000454400FFFFFFFFF07FFFE03FFFC01FFFB1
:10303000800FFF800FFF800FFF800FFF800FFFC00A
:103040001FFFE03FFFF07FFFFFFFFE003FFE003F5E
:10305000FE003FFE003FFE003FFE003FFE003FFE41
:10306000003FFE003FFE003FFE003FFE003FFE002F
:103070003FFE003FFE003FFE003FFE003FFE003FE0
:10308000FE003FFE003FFE003FFE003FFE003FFE11
:10309000003FFE0C010000000000000000FF415452
:1030A0002B445343414444523D302C22544350223C
:1030B0002C223131342E3231352E3135382E3639FD
:1030C000222C373737370D0000415426570D0000AA
:1030D00000000000000000000000000000000000F0
:1030E00000000000000000000000000000000000E0
:1030F0000000000041542B4346554E3D312C310D0C
:1031000000000000000000000000000000000000BF
:10311000000000000000000000000000000000416E
:10312000542B47534E0D000000000000000000002B
:10313000000000000000000000000000000000008F
:103140000000000000000000000041544F0D00008E
:10315000000000000000000000000000000000006F
:10316000000000000000000000000000000000005F
:1031700000000000002B2B2B0000000000000000CE
:10318000000000000000000000000000000000003F
:10319000000000000000000000000000000000002F
:1031A000000000000000000000000000000000001F
:1031B000000000000000000000000000000000000F
:1031C00000000000000000000000000000000000FF
:1031D00000010203040506070809000000000000C2
:1031E00000000000000000000000000000000000DF
:1031F00000000000000000000000000000000000CF
:1032000000000000000000000000000000000000BE
:1032100000000000000000000000000000000000AE
:10322000000000000000000000000000000000009E
:10323000000000000000000000000000010002008B
:103240000300040005000600070008000900000054
:103250000000000000000000000000000A000B0059
:103260000C000D000E000F00000000000000000028
:10327000000000000000000000000000000000004E
:10328000000000000000000000000000000000003E
:103290000000000000000000000000000A000B0019
:1032A0000C000D000E000F000000000000000000E8
:1032B000000000000000000000000000000000000E
:1032C00000000000000000000000000000000000FE
:1032D000000000000000000000002000EF050000DA
:00000001FF
