:100000001BC035C0C4C333C032C031C030C02FC0E4
:100010002EC02DC02CC02BC02AC029C028C027C08C
:1000200026C025C024C035C238C23BC23EC241C230
:1000300044C247C24AC24DC211241FBECFE5D4E01C
:10004000DEBFCDBF10E0A0E6B0E0E4EBFEE002C012
:1000500005900D92A43BB107D9F710E0A4EBB0E0F6
:1000600001C01D92A83CB107E1F7C4D321C7C8CF96
:10007000B89A90E087FF02C0C09A01C0C098000003
:10008000C19A0000C1989F5F983011F0880FF2CF9D
:100090000895B89890E080E0B09B03C0880F81601D
:1000A00001C0880F0000C19A0000C1989F5F98307E
:1000B00099F70895B89A20E097FF02C0C09A01C04E
:1000C000C098C19A0000C1982F5F203119F0880FA5
:1000D000991FF2CF0895B89820E030E040E0C901C0
:1000E000880F991FB09B03C09C01216001C09C0137
:1000F000C19A0000C1984F5F403189F7C901089546
:100100000F931F938B01C298B3DFC801D3DFC29A4C
:100110001F910F910895C2988068AADF0000DBDF6D
:10012000C29A08950F931F938B01782F7295707F59
:1001300060E0616187E0E4DF88E0B801E1DF1F9102
:100140000F9108950F931F938B01682F70E07695A0
:10015000762F662777956795616187E0D1DF89E023
:10016000B801CEDF1F910F910895782F7295707F9F
:1001700060E0616187E0C4DF88E0CDDF08951F9310
:10018000CF93DF9382E060E178EFCCDF1FEFCFEF1A
:10019000DFEF8FE061E070E0C5DF8FE0E6DF80FF3A
:1001A00005C021978FEFCF3FD807B9F78FE0DDDF8C
:1001B0009370969587958B5B90400B9730F0112349
:1001C00011F484E003C01150E4CF85E0DF91CF91BA
:1001D0001F910895C2984CDFC29A0895EF92FF9242
:1001E0000F931F937B018C01C29880E241DF812F26
:1001F0009927AA27BB273CDFC801AA27BB2738DFDE
:10020000BB27A12F902F8F2D33DF8E2D31DFC29A88
:1002100080E01F910F91FF90EF90089587E061E0DB
:1002200070E06EDF89E077DF08951F93182F84E177
:10023000D1DF87E060E170E063DF1233C9F0133390
:1002400028F4123041F01A30F9F409C01436A1F044
:100250001639D1F41FC080E063E270E303C080E090
:1002600063E278E04DDF8AE060ED78E149DF12C0BB
:1002700080E063E270E0F6CF80E061E270E040DFB2
:100280008AE064ED78E1F2CF87E061E170E038DF89
:1002900081E009C087E061E170E032DF84EC99E041
:1002A0000197F1F780E01F910895FF920F931F933C
:1002B000CF93DF93182F092FF62E80E68BDFC2989D
:1002C00080E4D6DE212F302FC901EC0110E003C0FD
:1002D0008991CEDE1F5F1F15D8F3C29ADF91CF91AF
:1002E0001F910F91FF9008950F931F93CF93DF936A
:1002F000EC0180EE6FDF81E08A95F1F7C29880EC27
:10030000B7DEC7DE8E3F11F000E00FC08883C1DE8C
:10031000082F898381508F3040F412E003C0B9DE8A
:1003200089831F5F21961017D0F3C29A802FDF9127
:10033000CF911F910F9108950F931F93082F84E180
:1003400049DF10E0015010408DE0B801EBDE8AE09B
:1003500064E070E0E7DE80E01F910F9108951F9345
:10036000182F883088F484E135DF612F70E0660F44
:10037000771F61627A6084E0D5DE83E08A95F1F7C9
:1003800081E0F3DE90E087FF91E0892F1F910895CF
:10039000CF93DF9388E11EDF8CE060E074E4B0DE91
:1003A0008FE0B9DEBC0161608FE0AADECFEFDFEF46
:1003B0008FE0B1DE21979FEFCF3FD90711F080FD8D
:1003C000F7CFCD2B19F4C0E0D0E004C08BE0A3DE62
:1003D000EC01D17084E1FEDECE01DF91CF91089572
:1003E000CEDE843099F084E1F5DE88E065E470E0EB
:1003F00099DE81E06FE772E095DE8DE060E07CE001
:100400007FDE8FE060EC72E27BDE80E0089584E1C5
:10041000E1DE88E065E470E085DE81E066E07FEFA4
:1004200081DEADDE843049F082E060E178EF7ADE93
:100430008FE060EC72E264DE80E0089584E1CADE61
:1004400086E08A95F1F788E067E470E06BDE81E092
:1004500060EB78E967DE93DE843049F082E060E3A8
:1004600078EF60DE8FE060EC72E24ADE80E00895B3
:100470001F93182F84E1AEDE86E08A95F1F7E12F15
:10048000F0E0E930F10518F4ED5EFF4F099481E0EA
:1004900025C080E061E073E01FC080E069E073E0A8
:1004A0001BC080E06AE073E017C080E061E673E0A3
:1004B00013C080E06AE273E00FC080E06CE173E09B
:1004C0000BC080E066E273E007C080E06EE373E09B
:1004D00003C080E06FE573E035DE80E01F91089592
:1004E0006F927F928F929F92AF92BF92CF92DF9244
:1004F000EF92FF920F931F93DF93CF9300D000D022
:10050000CDB7DEB73B014C01C29AC198C09A80E7D3
:1005100061DE84EC99E00197F1F750E6E52E50E0BA
:10052000F52E10E0F701619171917F01812FE8DDD7
:100530001F5F1830B9F744E7E42E40E0F42E1AE0CC
:10054000F701619171917F01812FDADD1F5F103119
:10055000B9F730E8E32E30E0F32E10E0F7016191B7
:1005600071917F01812FDEDD1F5F1031B9F720EA25
:10057000E22E20E0F22E10E0F701619171917F01EF
:10058000812FE0DD1F5F1530B9F784EC99E001970A
:10059000F1F768EA79E381E79AE020DE19821A82AE
:1005A0001B821C82C29880EA63DD73DD898371DD62
:1005B0008A836FDD8B836DDD8C83CE01019664E0D1
:1005C000BDD0C29A8AEF90E00197F1F7C401B30160
:1005D0002DEC3CEC4CE451E4BED25B016C0123D326
:1005E000E62E84E1F7DD83E060E070E089DD86E0FF
:1005F00060E070E085DDC401B30120E030E047E554
:1006000054E4A5D288231CF460E27AE002C060E2E0
:100610007AE184E075DDFF24B7017A6081E070DD66
:100620000027F7FC0095102FC801B7012AD39B01C2
:10063000AC01C601B50126D220E030E040E857E425
:10064000D4D3F1D29B01AC0182E0B90159DD82E043
:1006500060E070E077DD86EA9EE00197F1F78FE0D9
:1006600062EC78E24DDD8FE056DD82709870892B68
:10067000D1F78EE050DD84FD36C08AE076DD84FD62
:1006800032C08CE060E07CE43BDD82E060E078EF4B
:1006900049DD80E066E077EF45DD8FE060EC70E3F8
:1006A0002FDD8FE038DD94FDFCCF8CE060E074E45A
:1006B00027DD82E060E078EF35DD80E066E077EF0F
:1006C00031DD8FE064EC70E21BDD11E08FE023DDB3
:1006D000912F9A95F1F782FDF9CF8EE01CDD90FD08
:1006E00002C080E001C084E00F900F900F900F9047
:1006F000CF91DF911F910F91FF90EF90DF90CF90FE
:10070000BF90AF909F908F907F906F90089587E0FB
:1007100087BB88EF88BB16BA84E081BB8BEF82BBB6
:1007200010BA14BA8FEF85BB13BA089510BC85E0D8
:1007300089B988E98AB986E880BD0895582F282F9D
:10074000392FF90104C05D9BFECF81918CB98E2FAA
:10075000851B8617C0F3089585B7806285BF85B76E
:10076000806885BF8895089515BE80E88BBF089581
:10077000CF93DF93EC0188E12DDD83E08A95F1F7DB
:100780008599FECFCE01B0DDDF91CF9108951F9204
:100790000F920FB60F9211242F933F934F935F93B5
:1007A0006F937F938F939F93AF93BF93EF93FF9339
:1007B00088EB90E0DDDF8093B40081E08093B500AA
:1007C000FF91EF91BF91AF919F918F917F916F9129
:1007D0005F914F913F912F910F900FBE0F901F90FF
:1007E000189563DD8AE1F6DC83E08A95F1F7859957
:1007F000FECF08952F923F924F925F926F927F9219
:100800008F929F92AF92BF92CF92DF92EF92FF9220
:100810000F931F93DF93CF93CDB7DEB727970FB614
:10082000F894DEBF0FBECDBFDE011196EDEAF0E019
:1008300087E001900D928150E1F79091AB0080919B
:10084000AC008D839E8363DF929A88EB9BE029E165
:1008500030E0F9013197F1F70197D9F79298929A20
:1008600088EB9BE029E130E0F9013197F1F701973E
:10087000D9F7929815BE80E88BBF08EA11E661E2CD
:1008800070E08BEE93E42CDEF8013197F1F78823CA
:10089000B1F786E0EDDD80E14FDDD0DD789488E1D1
:1008A00099DC85B7806285BF85B7806885BF8895EC
:1008B000882499241E010894211C311C89E1482EAA
:1008C000512C03C00894811C911C8091B500882391
:1008D00009F4C8C08091B400873009F0B6C07090A8
:1008E000BC0066248091BD00B301680F711D20918A
:1008F000AB003091AC006217730709F058C08BB79A
:100900008F778BBF645C7F4F80E090E0B8D15B0154
:100910006C0120E030E04AE753E467D27B018C01B0
:1009200020E030E040E85FE312D188231CF461E06E
:1009300070E01EC0C801B70120E03FEF4FE757E469
:1009400050D2181694F4C601B50120E030E040E220
:1009500051E44BD268D105C0C2010197F1F7615053
:10096000704061157105C1F706C0C801B7015BD1C0
:10097000CB010197F1F7C10167E033DF20E030E000
:1009800020FF06C0929A8CE49DE10197F1F708C020
:10099000929888EC92E3F2013197F1F70197D9F739
:1009A0002F5F3F4F2B31310559F792984BC06F5F46
:1009B0007F4F09F04AC08BB78F778BBF245C3F4FC6
:1009C000B90180E090E05BD15B016C0120E030E098
:1009D0004AE753E40AD27B018C0120E030E040E892
:1009E0005FE3B5D088231CF461E070E01EC0C8014D
:1009F000B70120E03FEF4FE757E4F3D1181694F426
:100A0000C601B50120E030E040E251E4EED10BD167
:100A100005C0C2010197F1F7615070406115710581
:100A2000C1F706C0C801B701FED0CB010197F1F7AD
:100A3000C10167E0D6DE80E593ECF2013197F1F772
:100A40000197D9F78BB780688BBF1092B500F6DCA1
:100A500088E1C0DB85B7806285BF85B7806885BFC8
:100A6000889533CF89EE881683E0980608F42ACF5C
:100A700085B7806285BF85B7806885BF88958824E3
:100A8000992423CF5058BB27AA270ED070C161D11B
:100A900030F066D120F031F49F3F11F41EF456C1BE
:100AA0000EF4E095E7FB4CC1E92F72D180F3BA1741
:100AB000620773078407950718F071F49EF58AC1E1
:100AC0000EF4E0950B2EBA2FA02D0B01B901900169
:100AD0000C01CA01A0011124FF27591B99F0593FAD
:100AE00050F4503E68F11A16F040A22F232F342FF5
:100AF0004427585FF3CF469537952795A795F04043
:100B00005395C9F77EF41F16BA0B620B730B840B57
:100B1000BAF09150A1F0FF0FBB1F661F771F881F0F
:100B2000C2F70EC0BA0F621F731F841F48F4879567
:100B300077956795B795F7959E3F08F0B3CF939556
:100B4000880F08F09927EE0F979587950895D4D0D0
:100B500008F481E008950CD00AC102D140F0F9D028
:100B600030F021F45F3F19F0EBC0511134C1EEC0F9
:100B70000FD198F39923C9F35523B1F3951B550B66
:100B8000BB27AA2762177307840738F09F5F5F4F60
:100B9000220F331F441FAA1FA9F333D00E2E3AF0A1
:100BA000E0E830D091505040E695001CCAF729D0BB
:100BB000FE2F27D0660F771F881FBB1F261737070A
:100BC0004807AB07B0E809F0BB0B802DBF01FF273A
:100BD00093585F4F2AF09E3F510568F0B1C0FBC0AB
:100BE0005F3FECF3983EDCF3869577956795B79574
:100BF000F7959F5FC9F7880F911D9695879597F98F
:100C00000895E1E0660F771F881FBB1F6217730707
:100C10008407BA0720F0621B730B840BBA0BEE1F1C
:100C200088F7E0950895BCD088F09F5790F0B92FD1
:100C30009927B751A0F0D1F0660F771F881F991F31
:100C40001AF0BA95C9F712C0B13081F0C3D0B1E043
:100C50000895C0C0672F782F8827B85F39F0B93F53
:100C6000CCF3869577956795B395D9F73EF4909533
:100C70008095709561957F4F8F4F9F4F0895E894B1
:100C800009C097FB3EF490958095709561957F4FD4
:100C90008F4F9F4F9923A9F0F92F96E9BB27939582
:100CA000F695879577956795B795F111F8CFFAF492
:100CB000BB0F11F460FF1BC06F5F7F4F8F4F9F4FC3
:100CC00016C0882311F096E911C0772321F09EE821
:100CD000872F762F05C0662371F096E8862F70E087
:100CE00060E02AF09A95660F771F881FDAF7880F61
:100CF0009695879597F90895990F0008550FAA0BB7
:100D0000E0E8FEEF16161706E807F907C0F012161E
:100D10001306E407F50798F0621B730B840B950B21
:100D200039F40A2661F0232B242B252B21F4089576
:100D30000A2609F4A140A6958FEF811D811D089513
:100D400097F99F6780E870E060E008959FEF80EC7E
:100D5000089500240A941616170618060906089521
:100D600000240A9412161306140605060895092E87
:100D70000394000C11F4882352F0BB0F40F4BF2BF6
:100D800011F460FF04C06F5F7F4F8F4F9F4F089536
:100D900057FD9058440F551F59F05F3F71F047952C
:100DA000880F97FB991F61F09F3F79F08795089511
:100DB000121613061406551FF2CF4695F1DF08C030
:100DC000161617061806991FF1CF8695710561054D
:100DD00008940895E894BB2766277727CB0197F9F5
:100DE00008958ADF08F48FEF08950BD0C0CFB1DFEC
:100DF00028F0B6DF18F0952309F0A2CFA7CF112471
:100E0000EACFC6DFA0F3959FD1F3950F50E0551FB1
:100E1000629FF001729FBB27F00DB11D639FAA274F
:100E2000F00DB11DAA1F649F6627B00DA11D661F9E
:100E3000829F2227B00DA11D621F739FB00DA11DBF
:100E4000621F839FA00D611D221F749F3327A00D79
:100E5000611D231F849F600D211D822F762F6A2F15
:100E600011249F5750408AF0E1F088234AF0EE0F9A
:100E7000FF1FBB1F661F771F881F91505040A9F7A7
:100E80009E3F510570F05CCFA6CF5F3FECF3983EDC
:100E9000DCF3869577956795B795F795E7959F5F0E
:100EA000C1F7FE2B880F911D9695879597F90895A8
:040EB000F894FFCFE4
:100EB4002112240A05B80000200A240000001100B1
:100EC40000000000D418097000440008454CC020FC
:100ED40006F7000000F80711709901020F40C02ABC
:100EE400450081D20400250827010F005F1500008A
:100EF4005F030084000000000000010500FC0700FF
:040F0400000000FFEA
:00000001FF
