:1000000022C03CC03BC03AC039C038C037C036C03F
:1000100035C055C433C032C031C01EC42FC02EC03D
:10002000D5C32CC0A3C32AC029C028C027C026C05E
:1000300025C024C048C34BC34EC351C354C357C388
:100040005AC35DC360C311241FBECFEFD2E0DEBF31
:10005000CDBF11E0A0E0B1E0E0E5FFE002C0059017
:100060000D92AA35B107D9F711E0AAE5B1E001C0B8
:100070001D92A637B107E1F76BD468C7C1CF209AAC
:1000800090E087FF02C0289A01C028980000299AB2
:10009000000029989F5F983011F0880FF2CF0895E3
:1000A000209890E080E0189B03C0880F816001C019
:1000B000880F0000299A000029989F5F983099F7CF
:1000C0000895209A20E097FF02C0289A01C028983E
:1000D000299A000029982F5F203119F0880F991F65
:1000E000F2CF0895209820E030E040E0C901880F69
:1000F000991F189B03C09C01216001C09C01299A93
:10010000000029984F5F403189F7C90108950F9386
:100110001F938B012A98B3DFC801D3DF2A9A1F915E
:100120000F9108952A988068AADF0000DBDF2A9AE1
:1001300008950F931F938B01782F7295707F60E065
:10014000616187E0E4DF88E0B801E1DF1F910F9192
:1001500008950F931F938B01682F70E07695762F8B
:10016000662777956795616187E0D1DF89E0B801FF
:10017000CEDF1F910F910895782F7295707F60E008
:10018000616187E0C4DF88E0CDDF08951F93CF93DE
:10019000DF9382E060E178EFCCDFCFEFDFEF1FEF9E
:1001A0008FE061E070E0C5DF8FE0E6DF80FF05C033
:1001B00021978FEFCF3FD807B9F78FE0DDDF93703E
:1001C000969587958B5B90400B9730F0112311F437
:1001D00084E003C01150E4CF85E0DF91CF911F91FF
:1001E00008952A984CDF2A9A0895EF92FF920F9370
:1001F0001F937B018C012A9880E241DF812F992790
:10020000AA27BB273CDFC801AA27BB2738DFBB27AB
:10021000A12F902F8F2D33DF8E2D31DF2A9A80E092
:100220001F910F91FF90EF9008956F927F928F92A0
:100230009F92AF92BF92CF92DF92EF92FF920F9375
:100240001F93CF93DF933B014C012A9A2998289A58
:1002500080E7C7DF80E29EE40197F1F7C0E0D1E0DC
:1002600000E069917991802F52DF0F5F0830C9F764
:10027000C4E1D1E00AE069917991802F48DF0F5FF6
:100280000031C9F7C0E2D1E000E069917991802F97
:1002900050DF0F5F0031C9F7C0E4D1E000E06991A1
:1002A0007991802F56DF0F5F0530C9F780E29EE419
:1002B0000197F1F768EA79E381E79AE096DF80ED4C
:1002C00097E00197F1F7C401B3012DEC3CEC4CE44D
:1002D00051E48CD45B016C01F1D4E62E84E181DF22
:1002E00083E060E070E013DF86E060E070E00FDF45
:1002F000C401B30120E030E047E554E473D488231F
:100300001CF460E27AE002C060E27AE184E0FFDEA1
:10031000FF24B7017A6081E0FADE0027F7FC009540
:10032000102FC801B701F8D49B01AC01C601B5017B
:10033000F4D320E030E040E857E49ED5BFD49B01E1
:10034000AC0182E0B901E3DE82E060E070E001DF51
:1003500080E395E70197F1F78FE062EC78E2D7DE72
:100360008FE0E0DE82709870892BD1F78EE0DADEC4
:100370008C018AE001DF24E0969587952A95E1F7C4
:1003800094E0169507959A95E1F7802B80FD32C091
:100390008CE060E07CE4BBDE82E060E078EFC9DE08
:1003A00080E066E077EFC5DE8FE060EC70E3AFDE03
:1003B0008FE0B8DE94FDFCCF8CE060E074E4A7DE53
:1003C00082E060E078EFB5DE80E066E077EFB1DEF6
:1003D0008FE064EC70E29BDE02E08FE0A3DE902F02
:1003E0009A95F1F782FDF9CF8EE09CDE90FD02C078
:1003F00080E001C084E0DF91CF911F910F91FF90C9
:10040000EF90DF90CF90BF90AF909F908F907F90B4
:100410006F900895EF92FF920F931F937C012A989B
:1004200080EA2DDE3DDEF70181938F0139DEF70191
:10043000818336DEF801818333DE0F5F1F4FF801C1
:1004400081832A9A80E01F910F91FF90EF90089589
:1004500087E061E070E05BDE89E064DE08951F9371
:10046000182F84E1BEDE87E060E170E050DE1233D9
:10047000C9F0133328F4123041F01A30F9F409C0EE
:100480001436A1F01639D1F41FC080E063E270E3A6
:1004900003C080E063E278E03ADE8AE060ED78E174
:1004A00036DE12C080E063E270E0F6CF80E061E209
:1004B00070E02DDE8AE064ED78E1F2CF87E061E163
:1004C00070E025DE81E009C087E061E170E01FDEB9
:1004D00080E29EE40197F1F780E01F910895FF927A
:1004E0000F931F93CF93DF93182F092FF62E80E6DB
:1004F00078DE2A9880E4C3DD212F302FC901EC017A
:1005000010E003C08991BBDD1F5F1F15D8F32A9A45
:10051000DF91CF911F910F91FF9008950F931F933B
:10052000CF93DF93EC0180EE5CDE8DE08A95F1F7EE
:100530002A9880ECA4DDB4DD8C3F11F000E00FC000
:100540008883AEDD082F898381508F3040F412E01C
:1005500003C0A6DD89831F5F21961017D0F32A9A66
:10056000802FDF91CF911F910F9108950F931F93CB
:10057000082F84E136DE10E0015010408DE0B80114
:10058000D8DD8AE064E070E0D4DD80E01F910F9157
:1005900008951F93182F883088F484E122DE612F9C
:1005A00070E0660F771F61627A6084E0C2DD8AE1E5
:1005B0008A95F1F781E0E0DD90E087FF91E0892FF7
:1005C0001F910895CF93DF9388E10BDE8CE060E00C
:1005D00074E49DDD8FE0A6DDBC0161608FE097DDF6
:1005E000CFEFDFEF8FE09EDD21979FEFCF3FD90761
:1005F00011F080FDF7CFCD2B19F4C0E0D0E004C09E
:100600008BE090DDEC01D17084E1EBDD8C2FDF918C
:10061000CF910895BBDD843099F084E1E2DD88E07C
:1006200065E470E086DD81E06FE772E082DD8DE0F9
:1006300060E07CE06CDD8FE060EC72E268DD80E021
:10064000089584E1CEDD88E065E470E072DD81E04C
:1006500066E07FEF6EDD9ADD843049F082E060E194
:1006600078EF67DD8FE060EC72E251DD80E00895A5
:1006700084E1B7DD85E38A95F1F788E067E470E00F
:1006800058DD81E060E678E954DD80DD843049F0B2
:1006900082E060E378EF4DDD8FE060EC72E237DD01
:1006A00080E008951F93182F84E19BDD85E38A95F0
:1006B000F1F7E12FF0E0E930F10518F4E65EFF4FC5
:1006C000099481E025C080E061E073E01FC080E014
:1006D00069E073E01BC080E06AE073E017C080E06F
:1006E00061E673E013C080E06AE273E00FC080E06F
:1006F0006CE173E00BC080E066E273E007C080E06D
:100700006EE373E003C080E06FE573E022DD80E01C
:100710001F9108958FE084B988E085B913B880E20D
:100720008AB91BB819B887E087B982E088B916B8CA
:1007300008951092C5008CE08093C40088E98093EE
:10074000C10086E08093C2000895582F282F392FCA
:10075000F90107C08091C00085FFFCCF8191809393
:10076000C6008E2F851B8617A8F308951F920F923F
:100770000FB60F9211248F939F93EF93FF93909155
:10078000C60080916F01E82FF0E0E55AFE4F90839C
:100790008F5F80936F018091B10085608093B1007D
:1007A000809170008160809370001092B2008091FF
:1007B0006F01803110F010926F01FF91EF919F91C6
:1007C0008F910F900FBE0F901F9018951F920F9250
:1007D0000FB60F9211248F939F9380917101909186
:1007E00051018F5F8093710181509817A8F4109286
:1007F000710180917201882311F086E001C08FE0C1
:10080000809351018091720191E089278093720158
:100810008BB190E289278BB99F918F910F900FBE7A
:100820000F901F90189510928100EFE6F0E0808104
:100830008E7F808315BCEEE6F0E080818E7F808322
:1008400010925A0180915A01809372015D98109222
:1008500074011092730108951F920F920FB60F92B8
:1008600011242F933F934F935F936F937F938F93B5
:100870009F93AF93BF93EF93FF93809173019091F8
:1008800074010196909374018093730101978F5ABC
:10089000914020F0C8DF81E080937501FF91EF91D6
:1008A000BF91AF919F918F917F916F915F914F9188
:1008B0003F912F910F900FBE0F901F9018951F9290
:1008C0000F920FB60F9211248F93AF93BF93EF93B4
:1008D000FF931092B100809170008E7F8093700022
:1008E00080916F01873059F4AAE4B1E0EBE5F1E0C3
:1008F00001900D928150E1F781E080937001109298
:100900006F01FF91EF91BF91AF918F910F900FBE4B
:100910000F901F901895CF93DF93EC0188E161DC75
:100920008AE18A95F1F704C080915A01882321F069
:100930004E99FACFCE01F2DDDF91CF910895CFDD50
:100940008AE14FDC8AE18A95F1F74E99FECF08954E
:100950006F927F928F929F92AF92BF92CF92DF92CF
:10096000EF92FF920F931F93DF93CF93CDB7DEB734
:1009700064970FB6F894DEBF0FBECDBFFE0135966B
:1009800080E1DF011D928A95E9F719821A821B82A4
:100990001C82F894BFDE1092C5008CE08093C400E6
:1009A00088E98093C10086E08093C2008BB190E219
:1009B00089278BB980ED97E028EC30E0F901319779
:1009C000F1F70197D9F78BB190E289278BB908EC41
:1009D00010E061E270E08BEE93E427DC28EE33E078
:1009E000F8013197F1F721503040D1F7882389F78A
:1009F00088E058DE87E0BADD8E010F5F1F4FC80127
:100A000009DDC80164E0A1DE7894AA24BB2495E046
:100A1000892E912C8C0E9D1E81E0682E712C11E088
:100A200080915A01882369F535C088E1DADB4F9956
:100A300004C0809172018823D1F7809172018823CC
:100A4000F1F0C40168DF082F8823C9F08D818C3F45
:100A5000B1F48B858F3F99F4F984EE248A85970150
:100A6000280F311D2A153B0551F4DDDEC401602F2E
:100A70006CDEC40160E070E0402F50E060D284E1A1
:100A8000B0DB80917201882381F68AE491E067E00F
:100A900056DF0AC080917501813031F482E591E022
:100AA00067E053DE1092750180917001882309F48C
:100AB000B7CFD0904E01CC2480914F015601A80EA3
:100AC000B11C80914A018E3F29F5809150018F3FE2
:100AD00009F580914B018730E9F43FEFA3163FEF12
:100AE000B306C1F080918100856080938100809180
:100AF0006F00816080936F00709285006092840027
:100B000085B5846085BD80916E00816080936E00A4
:100B100010935A011092700183CF5058BB27AA2717
:100B20000ED070C161D130F066D120F031F49F3F1A
:100B300011F41EF456C10EF4E095E7FB4CC1E92F09
:100B400072D180F3BA17620773078407950718F00C
:100B500071F49EF58AC10EF4E0950B2EBA2FA02DEC
:100B60000B01B90190010C01CA01A0011124FF275A
:100B7000591B99F0593F50F4503E68F11A16F04055
:100B8000A22F232F342F4427585FF3CF4695379554
:100B90002795A795F0405395C9F77EF41F16BA0B19
:100BA000620B730B840BBAF09150A1F0FF0FBB1FC7
:100BB000661F771F881FC2F70EC0BA0F621F731F10
:100BC000841F48F4879577956795B795F7959E3F6D
:100BD00008F0B3CF9395880F08F09927EE0F9795FB
:100BE00087950895D4D008F481E008950CD00AC107
:100BF00002D140F0F9D030F021F45F3F19F0EBC0A2
:100C0000511134C1EEC00FD198F39923C9F3552384
:100C1000B1F3951B550BBB27AA27621773078407EF
:100C200038F09F5F5F4F220F331F441FAA1FA9F3A5
:100C300033D00E2E3AF0E0E830D091505040E69597
:100C4000001CCAF729D0FE2F27D0660F771F881FF8
:100C5000BB1F261737074807AB07B0E809F0BB0BE7
:100C6000802DBF01FF2793585F4F2AF09E3F51050B
:100C700068F0B1C0FBC05F3FECF3983EDCF38695B3
:100C800077956795B795F7959F5FC9F7880F911D81
:100C90009695879597F90895E1E0660F771F881F6D
:100CA000BB1F621773078407BA0720F0621B730B20
:100CB000840BBA0BEE1F88F7E0950895BCD088F03E
:100CC0009F5790F0B92F9927B751A0F0D1F0660F38
:100CD000771F881F991F1AF0BA95C9F712C0B13053
:100CE00081F0C3D0B1E00895C0C0672F782F882766
:100CF000B85F39F0B93FCCF3869577956795B39592
:100D0000D9F73EF490958095709561957F4F8F4F00
:100D10009F4F0895E89409C097FB3EF49095809505
:100D2000709561957F4F8F4F9F4F9923A9F0F92FB1
:100D300096E9BB279395F695879577956795B7952F
:100D4000F111F8CFFAF4BB0F11F460FF1BC06F5F15
:100D50007F4F8F4F9F4F16C0882311F096E911C027
:100D6000772321F09EE8872F762F05C0662371F048
:100D700096E8862F70E060E02AF09A95660F771F5C
:100D8000881FDAF7880F9695879597F90895990F38
:100D90000008550FAA0BE0E8FEEF16161706E80745
:100DA000F907C0F012161306E407F50798F0621B66
:100DB000730B840B950B39F40A2661F0232B242B3B
:100DC000252B21F408950A2609F4A140A6958FEF5A
:100DD000811D811D089597F99F6780E870E060E0AC
:100DE00008959FEF80EC089500240A9416161706C4
:100DF00018060906089500240A941216130614060C
:100E000005060895092E0394000C11F4882352F06E
:100E1000BB0F40F4BF2B11F460FF04C06F5F7F4F26
:100E20008F4F9F4F089557FD9058440F551F59F00D
:100E30005F3F71F04795880F97FB991F61F09F3FC7
:100E400079F087950895121613061406551FF2CFF0
:100E50004695F1DF08C0161617061806991FF1CF40
:100E600086957105610508940895E894BB27662767
:100E70007727CB0197F908950BD0C4CFB5DF28F0C1
:100E8000BADF18F0952309F0A6CFABCF1124EECF2F
:100E9000CADFA0F3959FD1F3950F50E0551F629FD5
:100EA000F001729FBB27F00DB11D639FAA27F00DC3
:100EB000B11DAA1F649F6627B00DA11D661F829FEA
:100EC0002227B00DA11D621F739FB00DA11D621FCF
:100ED000839FA00D611D221F749F3327A00D611DEC
:100EE000231F849F600D211D822F762F6A2F1124CE
:100EF0009F5750408AF0E1F088234AF0EE0FFF1F21
:100F0000BB1F661F771F881F91505040A9F79E3F57
:100F1000510570F060CFAACF5F3FECF3983EDCF351
:100F2000869577956795B795F795E7959F5FC1F794
:100F3000FE2B880F911D9695879597F90895DC01F2
:100F400001C06D9341505040E0F70895F894FFCFF1
:100F50002112240A05B80000200A24000000110014
:100F600000000000D418097000440008454CC0205F
:100F700006F7000000F80711709901020F40C02A1F
:100F8000450081D20400250827010F005F150000ED
:100F90005F030084000000000000FE07FFFFFFFF6A
:0A0FA000FF0FFC0700000000FF0037
:00000001FF
