:100000000C942A000C9447000C9447000C94470071
:100010000C9447000C9447000C9447000C94470044
:100020000C9447000C9447000C9447000C94470034
:100030000C9447000C9447000C9447000C94470024
:100040000C9447000C9447000C9447000C94470014
:100050000C94470011241FBECFE5D4E0DEBFCDBF16
:1000600011E0A0E6B0E0E0ECFEE002C005900D92E9
:10007000A63FB107D9F712E0A6EFB1E001C01D928B
:10008000AF32B107E1F70E9430050C945E070C9483
:100090000000D29A90E087FF02C0DA9A01C0DA9895
:1000A0000000D99A0000D9989F5F983011F0880F0E
:1000B000F2CF0895D29890E080E0CA9B03C0880FE9
:1000C000816001C0880F0000D99A0000D9989F5F15
:1000D000983099F70895D29A20E097FF02C0DA9AF3
:1000E00001C0DA98D99A0000D9982F5F203119F011
:1000F000880F991FF2CF0895D29820E030E040E0B9
:10010000C901880F991FCA9B03C09C01216001C0CF
:100110009C01D99A0000D9984F5F403189F7C901F5
:1001200008950F931F938B01D8980E944900C8012E
:100130000E946B00D89A1F910F910895D8988068FB
:100140000E94490000000E947C00D89A08950F93F5
:100150001F938B01782F7295707F60E0616187E05B
:100160000E94910088E0B8010E9491001F910F91B8
:1001700008950F931F938B01682F70E07695762F6B
:10018000662777956795616187E00E94910089E015
:10019000B8010E9491001F910F910895782F7295D8
:1001A000707F60E0616187E00E94910088E00E94BA
:1001B0009E0008951F93CF93DF9382E060E178EF74
:1001C0000E94A7001FEFCFEFDFEF8FE061E070E04C
:1001D0000E94A7008FE00E94CE0080FF05C02197FB
:1001E0008FEFCF3FD807B1F78FE00E94CE0093701A
:1001F000969587958B5B90400B9730F0112311F407
:1002000084E003C01150E1CF85E0DF91CF911F91D1
:100210000895D8980E944900D89A0895EF92FF92C5
:100220000F931F937B018C01D89880E20E944900B4
:10023000812F9927AA27BB270E944900C801AA2716
:10024000BB270E944900BB27A12F902F8F2D0E9412
:1002500049008E2D0E944900D89A80E01F910F918D
:10026000FF90EF9008956F927F928F929F92AF923E
:10027000BF92CF92DF92EF92FF920F931F93CF9393
:10028000DF933B014C01D89AD998DA9A80E70E9413
:10029000090180E29EE40197F1F7C0E6D0E000E0BA
:1002A00069917991802F0E9491000F5F0830C1F70A
:1002B000C4E7D0E00AE069917991802F0E94910013
:1002C0000F5F0031C1F7C0E8D0E000E0699179919B
:1002D000802F0E94A7000F5F0031C1F7C0EAD0E075
:1002E00000E069917991802F0E94B9000F5F05307D
:1002F000C1F780E29EE40197F1F768EA79E381E7CC
:100300009AE00E940E01D89880EA0E9449000E945B
:100310005A000E945A000E945A000E945A00D89A1D
:1003200080ED97E00197F1F7C401B3012DEC3CECAF
:100330004CE451E40E94B5055B016C010E941D066E
:10034000E62E84E10E94090183E060E070E00E94F3
:10035000910086E060E070E00E949100C401B3016A
:1003600020E030E047E554E40E94B10588231CF406
:1003700060E27AE002C060E27AE184E00E949100EB
:10038000FF24B7017A6081E00E9491000027F7FC0A
:100390000095102FC801B7010E944B069B01AC01CC
:1003A000C601B5010E944C0520E030E040E857E46A
:1003B0000E94FB060E941D069B01AC0182E0B90170
:1003C0000E94910082E060E070E00E94B90080E34A
:1003D00095E70197F1F78FE062EC78E20E949100D7
:1003E0008FE00E949E0082709870892BC9F78EE082
:1003F0000E949E008C018AE00E94CE0024E0969527
:1004000087952A95E1F794E0169507959A95E1F777
:10041000802B80FD3DC08CE060E07CE40E94910078
:1004200082E060E078EF0E94A70080E066E077EF6E
:100430000E94A7008FE060EC70E30E9491008FE0C3
:100440000E949E0094FDFBCF8CE060E074E40E946B
:10045000910082E060E078EF0E94A70080E066E013
:1004600077EF0E94A7008FE064EC70E20E94910099
:1004700002E08FE00E949E00902F9A95F1F782FD96
:10048000F8CF8EE00E949E0090FD02C080E001C087
:1004900084E0DF91CF911F910F91FF90EF90DF905B
:1004A000CF90BF90AF909F908F907F906F90089566
:1004B00087E061E070E00E94910089E00E949E0068
:1004C00008951F93182F84E10E94090187E060E1DD
:1004D00070E00E9491001233D9F0133328F41230E7
:1004E00041F01A3011F509C01436B1F01639E9F4AB
:1004F00023C080E063E270E303C080E063E278E061
:100500000E9491008AE060ED78E10E94910014C0A1
:1005100080E063E270E0F4CF80E061E270E00E948E
:1005200091008AE064ED78E1F0CF87E061E170E06E
:100530000E94910081E00AC087E061E170E00E94C2
:10054000910080E29EE40197F1F780E01F91089509
:100550001F93CF93DF93EC01162F84E10E940901D2
:1005600080E60E940901D89880E40E94490004C0F6
:1005700089910E94490011501123D1F7D89A8AE13C
:100580000E940901849BFECFDF91CF911F910895B6
:10059000FF920F931F93CF93DF93182F092FF62EFF
:1005A00080E60E940901D89880E40E944900212F2A
:1005B000302FC901EC0110E004C089910E9449006C
:1005C0001F5F1F15D0F3D89ADF91CF911F910F9124
:1005D000FF900895EF92FF920F931F93DF93CF93B5
:1005E0000F92CDB7DEB780EE0E9409018DE08A95AB
:1005F000F1F7D89880EC0E9449000E945A008E3F83
:1006000011F090E017C00E945A00982F81508F304F
:1006100088F406EF11E0E92EFF24E00EF11E07C07A
:1006200099830E945A00F80181938F0199810E15D8
:100630001F05B1F7D89A892F0F90CF91DF911F91A5
:100640000F91FF90EF9008950F931F93082F84E16F
:100650000E94090110E0015010408DE0B8010E9495
:10066000A7008AE064E070E00E94A70080E01F918C
:100670000F9108951F93182F8830A0F484E10E94F1
:100680000901612F70E0660F771F61627A6084E074
:100690000E94A7008AE18A95F1F781E00E94CE00CE
:1006A00090E087FF91E0892F1F9108951F93CF93CA
:1006B000DF9388E10E9409018CE060E074E40E940D
:1006C00091008FE00E949E00BC0161608FE00E945B
:1006D0009100CFEFDFEF8FE00E949E0021979FEF08
:1006E000CF3FD90711F080FDF6CFCD2B11F410E0EC
:1006F00004C08CE00E949E00182F84E10E94090132
:10070000812FDF91CF911F9108950E94DA008430EC
:10071000C1F084E10E94090188E065E470E00E9474
:10072000A70081E06FE772E00E94A7008DE060E023
:100730007CE00E9491008FE060EC72E20E949100E8
:1007400080E0089584E10E94090188E065E470E09A
:100750000E94A70081E065E07CEF0E94A7000E9454
:10076000DA00843059F082E060E178EF0E94A7005F
:100770008FE060EC72E20E94910080E0089584E1D5
:100780000E94090185E38A95F1F788E06DE470E045
:100790000E94A70081E065E07CEF0E94A7000E9414
:1007A000DA00843059F082E060E378EF0E94A7001D
:1007B0008FE060EC72E20E94910080E008951F9348
:1007C000182F84E10E94090185E38A95F1F714301E
:1007D00029F1153048F41130A9F0113078F01230B9
:1007E000A9F0133049F416C0163001F11630D0F0DC
:1007F000173001F1183011F181E026C080E061E08E
:1008000073E01FC080E069E073E01BC080E06AE035
:1008100073E017C080E061E673E013C080E06AE235
:1008200073E00FC080E06CE173E00BC080E066E233
:1008300073E007C080E06EE373E003C080E06FE523
:1008400073E00E94B90080E01F9108958FE08ABB99
:100850001BBA19BA82E087BB88BB16BA8FE184BB8A
:1008600015BA13BA11BA12BA10BA0895CF93DF931A
:10087000EC01DB0120E030E050E016C0E881F0E060
:10088000EE0FFF1FEA50FF4F90819295907F9C934F
:10089000E981F0E0EE0FFF1FEA50FF4F8081980FD3
:1008A0009D932E5F3F4F2296241735073CF3DF912F
:1008B000CF910895CF93DF93DC01EB0120E030E08E
:1008C000FD01E20FF31F80818E3231F02F5F3F4F29
:1008D0002C303105A9F7C1C02530310509F060C0C1
:1008E000EC91F0E0E655FF4F808124E6829FC00145
:1008F00011241296EC911297F0E0E655FF4F3081EB
:10090000380F1196EC911197F0E0E655FF4F80817A
:100910002AE0829FC0011124380F38831396EC918E
:100920001397F0E0E655FF4F90819295907F1496D3
:10093000EC911497F0E0E655FF4F8081980F998372
:100940001696EC911697F0E0E655FF4F9081929540
:10095000907F1796EC911797F0E0E655FF4F808156
:10096000980F9A831896EC911897F0E0E655FF4F90
:1009700090819295907F1996EC911997F0E0E65549
:10098000FF4F8081980F9B831A96EC911A97F0E0A5
:10099000E655FF4F90819295907F1B96EC9157C042
:1009A0002430310509F059C0EC91F0E0E655FF4FD5
:1009B00020818AE0289F900111241196EC911197D3
:1009C000F0E0E655FF4F8081820F88831296EC910C
:1009D0001297F0E0E655FF4F90819295907F139625
:1009E000EC911397F0E0E655FF4F8081980F9983C3
:1009F0001596EC911597F0E0E655FF4F9081929592
:100A0000907F1696EC911697F0E0E655FF4F8081A7
:100A1000980F9A831796EC911797F0E0E655FF4FE1
:100A200090819295907F1896EC911897F0E0E6559A
:100A3000FF4F8081980F9B831996EC911997F0E0F6
:100A4000E655FF4F90819295907F1A96EC91F0E0D9
:100A5000E655FF4F8081980F9C83DF91CF910895D9
:100A6000F8940E942604AA9A80EF95E528EC30E0DD
:100A7000F9013197F1F70197D9F7AA9848E028ECE6
:100A800030E08BB384278BBB88E893E1F901319781
:100A9000F1F70197D9F7F5CF5058BB27AA270ED009
:100AA00070C161D130F066D120F031F49F3F11F474
:100AB0001EF456C10EF4E095E7FB4CC1E92F72D14C
:100AC00080F3BA17620773078407950718F071F46B
:100AD0009EF58AC10EF4E0950B2EBA2FA02D0B01C6
:100AE000B90190010C01CA01A0011124FF27591B73
:100AF00099F0593F50F4503E68F11A16F040A22F79
:100B0000232F342F4427585FF3CF469537952795E9
:100B1000A795F0405395C9F77EF41F16BA0B620BE8
:100B2000730B840BBAF09150A1F0FF0FBB1F661F2F
:100B3000771F881FC2F70EC0BA0F621F731F841F72
:100B400048F4879577956795B795F7959E3F08F098
:100B5000B3CF9395880F08F09927EE0F9795879557
:100B60000895D4D008F481E008950CD00AC102D1D0
:100B700040F0F9D030F021F45F3F19F0EBC0511193
:100B800034C1EEC00FD198F39923C9F35523B1F3C3
:100B9000951B550BBB27AA2762177307840738F0EC
:100BA0009F5F5F4F220F331F441FAA1FA9F333D04B
:100BB0000E2E3AF0E0E830D091505040E695001CFF
:100BC000CAF729D0FE2F27D0660F771F881FBB1FBB
:100BD000261737074807AB07B0E809F0BB0B802D95
:100BE000BF01FF2793585F4F2AF09E3F510568F0E1
:100BF000B1C0FBC05F3FECF3983EDCF38695779580
:100C00006795B795F7959F5FC9F7880F911D9695E2
:100C1000879597F90895E1E0660F771F881FBB1F3E
:100C2000621773078407BA0720F0621B730B840BEB
:100C3000BA0BEE1F88F7E0950895BCD088F09F5757
:100C400090F0B92F9927B751A0F0D1F0660F771F18
:100C5000881F991F1AF0BA95C9F712C0B13081F0F8
:100C6000C3D0B1E00895C0C0672F782F8827B85F40
:100C700039F0B93FCCF3869577956795B395D9F759
:100C80003EF490958095709561957F4F8F4F9F4F63
:100C90000895E89409C097FB3EF49095809570956F
:100CA00061957F4F8F4F9F4F9923A9F0F92F96E9B8
:100CB000BB279395F695879577956795B795F1112D
:100CC000F8CFFAF4BB0F11F460FF1BC06F5F7F4FCA
:100CD0008F4F9F4F16C0882311F096E911C07723DC
:100CE00021F09EE8872F762F05C0662371F096E8E5
:100CF000862F70E060E02AF09A95660F771F881FB4
:100D0000DAF7880F9695879597F90895990F000857
:100D1000550FAA0BE0E8FEEF16161706E807F907CD
:100D2000C0F012161306E407F50798F0621B730B68
:100D3000840B950B39F40A2661F0232B242B252BE9
:100D400021F408950A2609F4A140A6958FEF811D8C
:100D5000811D089597F99F6780E870E060E008952D
:100D60009FEF80EC089500240A94161617061806C3
:100D70000906089500240A9412161306140605069F
:100D80000895092E0394000C11F4882352F0BB0F30
:100D900040F4BF2B11F460FF04C06F5F7F4F8F4F93
:100DA0009F4F089557FD9058440F551F59F05F3FCE
:100DB00071F04795880F97FB991F61F09F3F79F07D
:100DC00087950895121613061406551FF2CF4695FF
:100DD000F1DF08C0161617061806991FF1CF869581
:100DE0007105610508940895E894BB276627772765
:100DF000CB0197F908950BD0C4CFB5DF28F0BADF47
:100E000018F0952309F0A6CFABCF1124EECFCADF9F
:100E1000A0F3959FD1F3950F50E0551F629FF0010D
:100E2000729FBB27F00DB11D639FAA27F00DB11D66
:100E3000AA1F649F6627B00DA11D661F829F2227EF
:100E4000B00DA11D621F739FB00DA11D621F839F76
:100E5000A00D611D221F749F3327A00D611D231F4C
:100E6000849F600D211D822F762F6A2F11249F579A
:100E700050408AF0E1F088234AF0EE0FFF1FBB1FBD
:100E8000661F771F881F91505040A9F79E3F51055C
:100E900070F060CFAACF5F3FECF3983EDCF386950D
:100EA00077956795B795F795E7959F5FC1F7FE2B07
:100EB000880F911D9695879597F90895F894FFCF1F
:100EC0002112240A05B80000200A240000001100A5
:100ED00000000000D418097000440008454CC020F0
:100EE00006F7000000F80711709901020F40C02AB0
:100EF000450081D20400250827010F005F1500007E
:100F00005F030084000000000000000000000000FB
:100F100000000000000000000000000000000000D1
:100F200000000000000000000000000000000000C1
:100F300000000000000000000000000102030405A2
:100F400006070809FE120200000000000000000071
:100F50000000000000FF0000000000000000000092
:100F60000000000000000000000000000000000081
:100F70000000000000000000000000000000000071
:100F80000000000000000000000000000000000061
:100F90000000000000000000000000000000000051
:100FA0000000000000000000000000000000000041
:100FB0000000000000000000010002000300040027
:100FC00005000600070008000900000000000000FE
:100FD00000000000000000000A000B000C000D00E3
:100FE0000E000F00000000000000000000000000E4
:100FF00000000000000000000000000000000000F1
:1010000000000000000000000000000000000000E0
:1010100000000000000000000A000B000C000D00A2
:101020000E000F00000000000000000000000000A3
:1010300000000000000000000000000000000000B0
:1010400000000000000000000000000000000000A0
:061050000000000000009A
:00000001FF
