:100000001BC035C034C033C032C031C030C02FC077
:100010002EC0B5C32CC02BC02AC029C028C027C001
:1000200026C025C024C056C359C35CC35FC362C386
:1000300065C368C36BC36EC311241FBECFE5D4E094
:10004000DEBFCDBF10E0A0E6B0E0ECE4FDE002C012
:1000500005900D92A03BB107D9F710E0A0EBB0E0FE
:1000600001C01D92A93BB107E1F7C8D36DC6C8CF47
:10007000282FBA9A90E027FF02C0C29A03C088B323
:10008000887F88BB0000A89A0000A8989F5F9830DE
:1000900011F0220FF0CF089587B3887F87BB90E0DF
:1000A00080E0B29B03C0880F816001C0880F000010
:1000B000A89A0000A8989F5F983099F708959C012E
:1000C000BA9A90E037FF02C0C29A03C088B3887F13
:1000D00088BBA89A0000A8989F5F903119F0220F62
:1000E000331FF0CF089587B3887F87BB20E030E0CF
:1000F00040E0C901880F991FB29B03C09C01216099
:1001000001C09C01A89A0000A8984F5F403189F770
:10011000C90108950F931F938B01A998A9DFC80106
:10012000CEDFA99A1F910F910895A9988068A0DF4A
:100130000000D9DFA99A08950F931F938B01782FA0
:100140007295707F60E0616187E0E4DF88E0B8016C
:10015000E1DF1F910F9108950F931F938B01682F7B
:1001600070E07695762F662777956795616187E0D1
:10017000D1DF89E0B801CEDF1F910F910895782F6C
:100180007295707F60E0616187E0C4DF88E0CDDF59
:1001900008951F93CF93DF9382E060E178EFCCDF87
:1001A000CFEFDFEF1FEF8FE061E070E0C5DF8FE0A2
:1001B000E6DF80FF05C021978FEFCF3FD807B9F763
:1001C0008FE0DDDF9370969587958B5B90400B9762
:1001D00030F0112311F484E003C01150E4CF85E026
:1001E000DF91CF911F910895A99842DFA99A0895B0
:1001F000EF92FF920F931F937B018C01A99880E2ED
:1002000037DF812F9927AA27BB2732DFC801AA270A
:10021000BB272EDFBB27A12F902F8F2D29DF8E2DFF
:1002200027DFA99A80E01F910F91FF90EF9008952A
:100230006F927F928F929F92AF92BF92CF92DF92F6
:10024000EF92FF920F931F93CF93DF933B014C01EB
:10025000A99AA898C29A80E7C7DF80E098E401973E
:10026000F1F7C0E6D0E000E069917991802F52DF8C
:100270000F5F0830C9F7C4E7D0E00AE069917991CF
:10028000802F48DF0F5F0031C9F7C0E8D0E000E001
:1002900069917991802F50DF0F5F0031C9F7C0EA73
:1002A000D0E000E069917991802F56DF0F5F053033
:1002B000C9F780E098E40197F1F768EA79E381E70C
:1002C0009AE096DF83E397E00197F1F7C401B30169
:1002D0002DEC3CEC4CE451E48ED35B016C01F3D388
:1002E000E62E84E181DF83E060E070E013DF86E0EA
:1002F00060E070E00FDFC401B30120E030E047E5CB
:1003000054E475D388231CF460E27AE002C060E212
:100310007AE184E0FFDEFF24B7017A6081E0FADE53
:100320000027F7FC0095102FC801B701FAD39B01F5
:10033000AC01C601B501F6D220E030E040E857E458
:10034000A0D4C1D39B01AC0182E0B901E3DE82E01D
:1003500060E070E001DF80E09CE60197F1F78FE05C
:1003600062EC78E2D7DE8FE0E0DE82709870892B55
:10037000D1F78EE0DADE8C018AE001DFF4E09695B9
:100380008795FA95E1F7E4E016950795EA95E1F788
:10039000802B80FD32C08CE060E07CE4BBDE82E03C
:1003A00060E078EFC9DE80E066E077EFC5DE8FE0E1
:1003B00060EC70E3AFDE8FE0B8DE94FDFCCF8CE044
:1003C00060E074E4A7DE82E060E078EFB5DE80E014
:1003D00066E077EFB1DE8FE064EC70E29BDE02E076
:1003E0008FE0A3DE902F9A95F1F782FDF9CF8EE092
:1003F0009CDE90FD02C080E001C084E0DF91CF91DF
:100400001F910F91FF90EF90DF90CF90BF90AF9032
:100410009F908F907F906F900895EF92FF920F932F
:100420001F937C01A99880EA23DE36DEF7018193D1
:100430008F0132DEF70181832FDEF80181832CDE0C
:100440000F5F1F4FF8018183A99A80E01F910F91E0
:10045000FF90EF90089587E061E070E05BDE89E057
:1004600064DE08951F93182F84E1BEDE87E060E10B
:1004700070E050DE1233C9F0133328F4123041F02B
:100480001A30F9F409C01436A1F01639D1F41FC09E
:1004900080E063E270E303C080E063E278E03ADE8C
:1004A0008AE060ED78E136DE12C080E063E270E061
:1004B000F6CF80E061E270E02DDE8AE064ED78E165
:1004C000F2CF87E061E170E025DE81E009C087E0DE
:1004D00061E170E01FDE80E098E40197F1F780E0D1
:1004E0001F910895FF920F931F93CF93DF93182FBF
:1004F000092FF62E80E678DEA99880E4B9DD212F59
:10050000302FC901EC0110E003C08991B1DD1F5FFC
:100510001F15D8F3A99ADF91CF911F910F91FF90EA
:100520000895FF920F931F93CF93DF93F82E092F17
:1005300080EE5ADE8CE08A95F1F7A99880EC98DD80
:10054000ABDD8E3F11F010E010C0A6DD182F8150FA
:100550008F3058F48F2D902F9C01E90102C09CDD53
:1005600089939E012F192117D0F3A99A812FDF912A
:10057000CF911F910F91FF9008950F931F93082F14
:1005800084E132DE10E0015010408DE0B801D4DD8E
:100590008AE064E070E0D0DD80E01F910F91089563
:1005A0001F93182F883088F484E11EDE612F70E0DD
:1005B000660F771F61627A6084E0BEDD88E18A950C
:1005C000F1F781E0DCDD90E087FF91E0892F1F915A
:1005D0000895CF93DF9388E107DE8CE060E074E458
:1005E00099DD8FE0A2DDBC0161608FE093DDCFEF8C
:1005F000DFEF8FE09ADD21979FEFCF3FD90711F012
:1006000080FDF7CFCD2B19F4C0E0D0E004C08BE023
:100610008CDDEC01D17084E1E7DD8C2FDF91CF918F
:100620000895B7DD843099F084E1DEDD88E065E48B
:1006300070E082DD81E06FE772E07EDD8DE060E0FA
:100640007CE068DD8FE060EC72E264DD80E00895BC
:1006500084E1CADD88E065E470E06EDD81E066E09B
:100660007FEF6ADD96DD843049F082E060E178EF6B
:1006700063DD8FE060EC72E24DDD80E0089584E19F
:10068000B3DD81E38A95F1F788E067E470E054DD3B
:1006900081E060E678E950DD7CDD843049F082E07D
:1006A00060E378EF49DD8FE060EC72E233DD80E0FB
:1006B00008951F93182F84E197DD81E38A95F1F760
:1006C000E12FF0E0E930F10518F4ED5EFF4F0994F9
:1006D00081E025C080E061E073E01FC080E069E058
:1006E00073E01BC080E06AE073E017C080E061E661
:1006F00073E013C080E06AE273E00FC080E06CE159
:1007000073E00BC080E066E273E007C080E06EE358
:1007100073E003C080E06FE573E01EDD80E01F91B1
:10072000089584E087BB18BA16BA11BA12BA10BA83
:1007300087E084BB15BA13BA089510BC83E089B969
:1007400088E18AB986E880BD0895582F282F392F6F
:10075000F90104C05D9BFECF81918CB98E2F851B62
:100760008617C0F3089583E085BF80E48BBF0895AA
:1007700083B7846083BF89B7816089BF08951F9262
:100780000F920FB60F9211248F939F938091B10017
:100790009091B0008F5F8093B1008150981778F4EA
:1007A0001092B1009091B200992311F082E001C043
:1007B00083E08093B00081E098279093B2009F91EE
:1007C0008F910F900FBE0F901F901895CF93DF93CE
:1007D000EC0188E109DD88E18A95F1F7B099FECF57
:1007E000CE019FDEDF91CF9108957CDE8AE1FCDCB3
:1007F00088E18A95F1F7B099FECF0895EF92FF92C4
:100800000F931F93DF93CF93CDB7DEB768970FB6E3
:10081000F894DEBF0FBECDBF19821A821B821C82E4
:10082000FE01399680E1DF011D928A95E9F7F8947F
:1008300078DF10BC83E089B988E18AB986E880BD99
:1008400083B7846083BF89B7816089BF85B394E033
:10085000892785BB80ED97E028EB30E0F9013197DF
:10086000F1F70197D9F785B394E0892785BB80ED2F
:1008700097E028EB30E0F9013197F1F70197D9F7CC
:1008800078948EEF898382E08A838BEA8B838DEC68
:100890008C831D821E821F82188608EB10E061E2A5
:1008A00070E08BEE93E4C4DC28EE33E0F80131977E
:1008B000F1F721503040D1F7882389F788E0F9DE3D
:1008C00084E05BDE8E010B5F1F4FC801A6DDC8010F
:1008D00064E03BDF789489E0E82EF12CEC0EFD1EFD
:1008E0008E010F5F1F4F13C088E17EDC8091B20044
:1008F000829902C08823E1F7882339F08AEA90E0E0
:1009000065E023DFC70162E020DF84E16DDC8091D8
:10091000B200882349F7C80164E067DFC80164E0DA
:1009200014DFF5CF5058BB27AA270ED070C161D174
:1009300030F066D120F031F49F3F11F41EF456C11F
:100940000EF4E095E7FB4CC1E92F72D180F3BA17A2
:10095000620773078407950718F071F49EF58AC142
:100960000EF4E0950B2EBA2FA02D0B01B9019001CA
:100970000C01CA01A0011124FF27591B99F0593F0E
:1009800050F4503E68F11A16F040A22F232F342F56
:100990004427585FF3CF469537952795A795F040A4
:1009A0005395C9F77EF41F16BA0B620B730B840BB9
:1009B000BAF09150A1F0FF0FBB1F661F771F881F71
:1009C000C2F70EC0BA0F621F731F841F48F48795C9
:1009D00077956795B795F7959E3F08F0B3CF9395B8
:1009E000880F08F09927EE0F979587950895D4D032
:1009F00008F481E008950CD00AC102D140F0F9D08A
:100A000030F021F45F3F19F0EBC0511134C1EEC05A
:100A10000FD198F39923C9F35523B1F3951B550BC7
:100A2000BB27AA2762177307840738F09F5F5F4FC1
:100A3000220F331F441FAA1FA9F333D00E2E3AF002
:100A4000E0E830D091505040E695001CCAF729D01C
:100A5000FE2F27D0660F771F881FBB1F261737076B
:100A60004807AB07B0E809F0BB0B802DBF01FF279B
:100A700093585F4F2AF09E3F510568F0B1C0FBC00C
:100A80005F3FECF3983EDCF3869577956795B795D5
:100A9000F7959F5FC9F7880F911D9695879597F9F0
:100AA0000895E1E0660F771F881FBB1F6217730769
:100AB0008407BA0720F0621B730B840BBA0BEE1F7E
:100AC00088F7E0950895BCD088F09F5790F0B92F33
:100AD0009927B751A0F0D1F0660F771F881F991F93
:100AE0001AF0BA95C9F712C0B13081F0C3D0B1E0A5
:100AF0000895C0C0672F782F8827B85F39F0B93FB5
:100B0000CCF3869577956795B395D9F73EF4909594
:100B10008095709561957F4F8F4F9F4F0895E89412
:100B200009C097FB3EF490958095709561957F4F35
:100B30008F4F9F4F9923A9F0F92F96E9BB279395E3
:100B4000F695879577956795B795F111F8CFFAF4F3
:100B5000BB0F11F460FF1BC06F5F7F4F8F4F9F4F24
:100B600016C0882311F096E911C0772321F09EE882
:100B7000872F762F05C0662371F096E8862F70E0E8
:100B800060E02AF09A95660F771F881FDAF7880FC2
:100B90009695879597F90895990F0008550FAA0B18
:100BA000E0E8FEEF16161706E807F907C0F0121680
:100BB0001306E407F50798F0621B730B840B950B83
:100BC00039F40A2661F0232B242B252B21F40895D8
:100BD0000A2609F4A140A6958FEF811D811D089575
:100BE00097F99F6780E870E060E008959FEF80ECE0
:100BF000089500240A941616170618060906089583
:100C000000240A9412161306140605060895092EE8
:100C10000394000C11F4882352F0BB0F40F4BF2B57
:100C200011F460FF04C06F5F7F4F8F4F9F4F089597
:100C300057FD9058440F551F59F05F3F71F047958D
:100C4000880F97FB991F61F09F3F79F08795089572
:100C5000121613061406551FF2CF4695F1DF08C091
:100C6000161617061806991FF1CF869571056105AE
:100C700008940895E894BB2766277727CB0197F956
:100C800008950BD0C4CFB5DF28F0BADF18F0952354
:100C900009F0A6CFABCF1124EECFCADFA0F3959F0A
:100CA000D1F3950F50E0551F629FF001729FBB2753
:100CB000F00DB11D639FAA27F00DB11DAA1F649FFF
:100CC0006627B00DA11D661F829F2227B00DA11DB2
:100CD000621F739FB00DA11D621F839FA00D611D38
:100CE000221F749F3327A00D611D231F849F600D59
:100CF000211D822F762F6A2F11249F5750408AF092
:100D0000E1F088234AF0EE0FFF1FBB1F661F771F1D
:100D1000881F91505040A9F79E3F510570F060CF59
:100D2000AACF5F3FECF3983EDCF386957795679505
:100D3000B795F795E7959F5FC1F7FE2B880F911D3B
:0C0D40009695879597F90895F894FFCFD9
:100D4C002112240A05B80000200A2400000011001A
:100D5C0000000000D418097000440008454CC02065
:100D6C0006F7000000F80711709901020F40C02A25
:100D7C00470081D20400250827010F005F150000F1
:100D8C005F030084000000000000726561643A009B
:00000001FF
